{"abi":[{"type":"constructor","inputs":[{"name":"weth","type":"address","internalType":"contract IWETH"}],"stateMutability":"nonpayable"},{"type":"receive","stateMutability":"payable"},{"type":"function","name":"advanceNonce","inputs":[{"name":"amount","type":"uint8","internalType":"uint8"}],"outputs":[],"stateMutability":"nonpayable"},{"type":"function","name":"and","inputs":[{"name":"offsets","type":"uint256","internalType":"uint256"},{"name":"data","type":"bytes","internalType":"bytes"}],"outputs":[{"name":"","type":"bool","internalType":"bool"}],"stateMutability":"view"},{"type":"function","name":"arbitraryStaticCall","inputs":[{"name":"target","type":"address","internalType":"address"},{"name":"data","type":"bytes","internalType":"bytes"}],"outputs":[{"name":"","type":"uint256","internalType":"uint256"}],"stateMutability":"view"},{"type":"function","name":"cancelOrder","inputs":[{"name":"order","type":"tuple","internalType":"struct OrderLib.Order","components":[{"name":"salt","type":"uint256","internalType":"uint256"},{"name":"makerAsset","type":"address","internalType":"address"},{"name":"takerAsset","type":"address","internalType":"address"},{"name":"maker","type":"address","internalType":"address"},{"name":"receiver","type":"address","internalType":"address"},{"name":"allowedSender","type":"address","internalType":"address"},{"name":"makingAmount","type":"uint256","internalType":"uint256"},{"name":"takingAmount","type":"uint256","internalType":"uint256"},{"name":"offsets","type":"uint256","internalType":"uint256"},{"name":"interactions","type":"bytes","internalType":"bytes"}]}],"outputs":[{"name":"orderRemaining","type":"uint256","internalType":"uint256"},{"name":"orderHash","type":"bytes32","internalType":"bytes32"}],"stateMutability":"nonpayable"},{"type":"function","name":"cancelOrderRFQ","inputs":[{"name":"orderInfo","type":"uint256","internalType":"uint256"}],"outputs":[],"stateMutability":"nonpayable"},{"type":"function","name":"cancelOrderRFQ","inputs":[{"name":"orderInfo","type":"uint256","internalType":"uint256"},{"name":"additionalMask","type":"uint256","internalType":"uint256"}],"outputs":[],"stateMutability":"nonpayable"},{"type":"function","name":"checkPredicate","inputs":[{"name":"order","type":"tuple","internalType":"struct OrderLib.Order","components":[{"name":"salt","type":"uint256","internalType":"uint256"},{"name":"makerAsset","type":"address","internalType":"address"},{"name":"takerAsset","type":"address","internalType":"address"},{"name":"maker","type":"address","internalType":"address"},{"name":"receiver","type":"address","internalType":"address"},{"name":"allowedSender","type":"address","internalType":"address"},{"name":"makingAmount","type":"uint256","internalType":"uint256"},{"name":"takingAmount","type":"uint256","internalType":"uint256"},{"name":"offsets","type":"uint256","internalType":"uint256"},{"name":"interactions","type":"bytes","internalType":"bytes"}]}],"outputs":[{"name":"","type":"bool","internalType":"bool"}],"stateMutability":"view"},{"type":"function","name":"clipperSwap","inputs":[{"name":"clipperExchange","type":"address","internalType":"contract IClipperExchangeInterface"},{"name":"srcToken","type":"address","internalType":"contract IERC20"},{"name":"dstToken","type":"address","internalType":"contract IERC20"},{"name":"inputAmount","type":"uint256","internalType":"uint256"},{"name":"outputAmount","type":"uint256","internalType":"uint256"},{"name":"goodUntil","type":"uint256","internalType":"uint256"},{"name":"r","type":"bytes32","internalType":"bytes32"},{"name":"vs","type":"bytes32","internalType":"bytes32"}],"outputs":[{"name":"returnAmount","type":"uint256","internalType":"uint256"}],"stateMutability":"payable"},{"type":"function","name":"clipperSwapTo","inputs":[{"name":"clipperExchange","type":"address","internalType":"contract IClipperExchangeInterface"},{"name":"recipient","type":"address","internalType":"address payable"},{"name":"srcToken","type":"address","internalType":"contract IERC20"},{"name":"dstToken","type":"address","internalType":"contract IERC20"},{"name":"inputAmount","type":"uint256","internalType":"uint256"},{"name":"outputAmount","type":"uint256","internalType":"uint256"},{"name":"goodUntil","type":"uint256","internalType":"uint256"},{"name":"r","type":"bytes32","internalType":"bytes32"},{"name":"vs","type":"bytes32","internalType":"bytes32"}],"outputs":[{"name":"returnAmount","type":"uint256","internalType":"uint256"}],"stateMutability":"payable"},{"type":"function","name":"clipperSwapToWithPermit","inputs":[{"name":"clipperExchange","type":"address","internalType":"contract IClipperExchangeInterface"},{"name":"recipient","type":"address","internalType":"address payable"},{"name":"srcToken","type":"address","internalType":"contract IERC20"},{"name":"dstToken","type":"address","internalType":"contract IERC20"},{"name":"inputAmount","type":"uint256","internalType":"uint256"},{"name":"outputAmount","type":"uint256","internalType":"uint256"},{"name":"goodUntil","type":"uint256","internalType":"uint256"},{"name":"r","type":"bytes32","internalType":"bytes32"},{"name":"vs","type":"bytes32","internalType":"bytes32"},{"name":"permit","type":"bytes","internalType":"bytes"}],"outputs":[{"name":"returnAmount","type":"uint256","internalType":"uint256"}],"stateMutability":"nonpayable"},{"type":"function","name":"destroy","inputs":[],"outputs":[],"stateMutability":"nonpayable"},{"type":"function","name":"eq","inputs":[{"name":"value","type":"uint256","internalType":"uint256"},{"name":"data","type":"bytes","internalType":"bytes"}],"outputs":[{"name":"","type":"bool","internalType":"bool"}],"stateMutability":"view"},{"type":"function","name":"fillOrder","inputs":[{"name":"order","type":"tuple","internalType":"struct OrderLib.Order","components":[{"name":"salt","type":"uint256","internalType":"uint256"},{"name":"makerAsset","type":"address","internalType":"address"},{"name":"takerAsset","type":"address","internalType":"address"},{"name":"maker","type":"address","internalType":"address"},{"name":"receiver","type":"address","internalType":"address"},{"name":"allowedSender","type":"address","internalType":"address"},{"name":"makingAmount","type":"uint256","internalType":"uint256"},{"name":"takingAmount","type":"uint256","internalType":"uint256"},{"name":"offsets","type":"uint256","internalType":"uint256"},{"name":"interactions","type":"bytes","internalType":"bytes"}]},{"name":"signature","type":"bytes","internalType":"bytes"},{"name":"interaction","type":"bytes","internalType":"bytes"},{"name":"makingAmount","type":"uint256","internalType":"uint256"},{"name":"takingAmount","type":"uint256","internalType":"uint256"},{"name":"skipPermitAndThresholdAmount","type":"uint256","internalType":"uint256"}],"outputs":[{"name":"","type":"uint256","internalType":"uint256"},{"name":"","type":"uint256","internalType":"uint256"},{"name":"","type":"bytes32","internalType":"bytes32"}],"stateMutability":"payable"},{"type":"function","name":"fillOrderRFQ","inputs":[{"name":"order","type":"tuple","internalType":"struct OrderRFQLib.OrderRFQ","components":[{"name":"info","type":"uint256","internalType":"uint256"},{"name":"makerAsset","type":"address","internalType":"address"},{"name":"takerAsset","type":"address","internalType":"address"},{"name":"maker","type":"address","internalType":"address"},{"name":"allowedSender","type":"address","internalType":"address"},{"name":"makingAmount","type":"uint256","internalType":"uint256"},{"name":"takingAmount","type":"uint256","internalType":"uint256"}]},{"name":"signature","type":"bytes","internalType":"bytes"},{"name":"flagsAndAmount","type":"uint256","internalType":"uint256"}],"outputs":[{"name":"","type":"uint256","internalType":"uint256"},{"name":"","type":"uint256","internalType":"uint256"},{"name":"","type":"bytes32","internalType":"bytes32"}],"stateMutability":"payable"},{"type":"function","name":"fillOrderRFQCompact","inputs":[{"name":"order","type":"tuple","internalType":"struct OrderRFQLib.OrderRFQ","components":[{"name":"info","type":"uint256","internalType":"uint256"},{"name":"makerAsset","type":"address","internalType":"address"},{"name":"takerAsset","type":"address","internalType":"address"},{"name":"maker","type":"address","internalType":"address"},{"name":"allowedSender","type":"address","internalType":"address"},{"name":"makingAmount","type":"uint256","internalType":"uint256"},{"name":"takingAmount","type":"uint256","internalType":"uint256"}]},{"name":"r","type":"bytes32","internalType":"bytes32"},{"name":"vs","type":"bytes32","internalType":"bytes32"},{"name":"flagsAndAmount","type":"uint256","internalType":"uint256"}],"outputs":[{"name":"filledMakingAmount","type":"uint256","internalType":"uint256"},{"name":"filledTakingAmount","type":"uint256","internalType":"uint256"},{"name":"orderHash","type":"bytes32","internalType":"bytes32"}],"stateMutability":"payable"},{"type":"function","name":"fillOrderRFQTo","inputs":[{"name":"order","type":"tuple","internalType":"struct OrderRFQLib.OrderRFQ","components":[{"name":"info","type":"uint256","internalType":"uint256"},{"name":"makerAsset","type":"address","internalType":"address"},{"name":"takerAsset","type":"address","internalType":"address"},{"name":"maker","type":"address","internalType":"address"},{"name":"allowedSender","type":"address","internalType":"address"},{"name":"makingAmount","type":"uint256","internalType":"uint256"},{"name":"takingAmount","type":"uint256","internalType":"uint256"}]},{"name":"signature","type":"bytes","internalType":"bytes"},{"name":"flagsAndAmount","type":"uint256","internalType":"uint256"},{"name":"target","type":"address","internalType":"address"}],"outputs":[{"name":"filledMakingAmount","type":"uint256","internalType":"uint256"},{"name":"filledTakingAmount","type":"uint256","internalType":"uint256"},{"name":"orderHash","type":"bytes32","internalType":"bytes32"}],"stateMutability":"payable"},{"type":"function","name":"fillOrderRFQToWithPermit","inputs":[{"name":"order","type":"tuple","internalType":"struct OrderRFQLib.OrderRFQ","components":[{"name":"info","type":"uint256","internalType":"uint256"},{"name":"makerAsset","type":"address","internalType":"address"},{"name":"takerAsset","type":"address","internalType":"address"},{"name":"maker","type":"address","internalType":"address"},{"name":"allowedSender","type":"address","internalType":"address"},{"name":"makingAmount","type":"uint256","internalType":"uint256"},{"name":"takingAmount","type":"uint256","internalType":"uint256"}]},{"name":"signature","type":"bytes","internalType":"bytes"},{"name":"flagsAndAmount","type":"uint256","internalType":"uint256"},{"name":"target","type":"address","internalType":"address"},{"name":"permit","type":"bytes","internalType":"bytes"}],"outputs":[{"name":"","type":"uint256","internalType":"uint256"},{"name":"","type":"uint256","internalType":"uint256"},{"name":"","type":"bytes32","internalType":"bytes32"}],"stateMutability":"nonpayable"},{"type":"function","name":"fillOrderTo","inputs":[{"name":"order_","type":"tuple","internalType":"struct OrderLib.Order","components":[{"name":"salt","type":"uint256","internalType":"uint256"},{"name":"makerAsset","type":"address","internalType":"address"},{"name":"takerAsset","type":"address","internalType":"address"},{"name":"maker","type":"address","internalType":"address"},{"name":"receiver","type":"address","internalType":"address"},{"name":"allowedSender","type":"address","internalType":"address"},{"name":"makingAmount","type":"uint256","internalType":"uint256"},{"name":"takingAmount","type":"uint256","internalType":"uint256"},{"name":"offsets","type":"uint256","internalType":"uint256"},{"name":"interactions","type":"bytes","internalType":"bytes"}]},{"name":"signature","type":"bytes","internalType":"bytes"},{"name":"interaction","type":"bytes","internalType":"bytes"},{"name":"makingAmount","type":"uint256","internalType":"uint256"},{"name":"takingAmount","type":"uint256","internalType":"uint256"},{"name":"skipPermitAndThresholdAmount","type":"uint256","internalType":"uint256"},{"name":"target","type":"address","internalType":"address"}],"outputs":[{"name":"actualMakingAmount","type":"uint256","internalType":"uint256"},{"name":"actualTakingAmount","type":"uint256","internalType":"uint256"},{"name":"orderHash","type":"bytes32","internalType":"bytes32"}],"stateMutability":"payable"},{"type":"function","name":"fillOrderToWithPermit","inputs":[{"name":"order","type":"tuple","internalType":"struct OrderLib.Order","components":[{"name":"salt","type":"uint256","internalType":"uint256"},{"name":"makerAsset","type":"address","internalType":"address"},{"name":"takerAsset","type":"address","internalType":"address"},{"name":"maker","type":"address","internalType":"address"},{"name":"receiver","type":"address","internalType":"address"},{"name":"allowedSender","type":"address","internalType":"address"},{"name":"makingAmount","type":"uint256","internalType":"uint256"},{"name":"takingAmount","type":"uint256","internalType":"uint256"},{"name":"offsets","type":"uint256","internalType":"uint256"},{"name":"interactions","type":"bytes","internalType":"bytes"}]},{"name":"signature","type":"bytes","internalType":"bytes"},{"name":"interaction","type":"bytes","internalType":"bytes"},{"name":"makingAmount","type":"uint256","internalType":"uint256"},{"name":"takingAmount","type":"uint256","internalType":"uint256"},{"name":"skipPermitAndThresholdAmount","type":"uint256","internalType":"uint256"},{"name":"target","type":"address","internalType":"address"},{"name":"permit","type":"bytes","internalType":"bytes"}],"outputs":[{"name":"","type":"uint256","internalType":"uint256"},{"name":"","type":"uint256","internalType":"uint256"},{"name":"","type":"bytes32","internalType":"bytes32"}],"stateMutability":"nonpayable"},{"type":"function","name":"gt","inputs":[{"name":"value","type":"uint256","internalType":"uint256"},{"name":"data","type":"bytes","internalType":"bytes"}],"outputs":[{"name":"","type":"bool","internalType":"bool"}],"stateMutability":"view"},{"type":"function","name":"hashOrder","inputs":[{"name":"order","type":"tuple","internalType":"struct OrderLib.Order","components":[{"name":"salt","type":"uint256","internalType":"uint256"},{"name":"makerAsset","type":"address","internalType":"address"},{"name":"takerAsset","type":"address","internalType":"address"},{"name":"maker","type":"address","internalType":"address"},{"name":"receiver","type":"address","internalType":"address"},{"name":"allowedSender","type":"address","internalType":"address"},{"name":"makingAmount","type":"uint256","internalType":"uint256"},{"name":"takingAmount","type":"uint256","internalType":"uint256"},{"name":"offsets","type":"uint256","internalType":"uint256"},{"name":"interactions","type":"bytes","internalType":"bytes"}]}],"outputs":[{"name":"","type":"bytes32","internalType":"bytes32"}],"stateMutability":"view"},{"type":"function","name":"increaseNonce","inputs":[],"outputs":[],"stateMutability":"nonpayable"},{"type":"function","name":"invalidatorForOrderRFQ","inputs":[{"name":"maker","type":"address","internalType":"address"},{"name":"slot","type":"uint256","internalType":"uint256"}],"outputs":[{"name":"","type":"uint256","internalType":"uint256"}],"stateMutability":"view"},{"type":"function","name":"lt","inputs":[{"name":"value","type":"uint256","internalType":"uint256"},{"name":"data","type":"bytes","internalType":"bytes"}],"outputs":[{"name":"","type":"bool","internalType":"bool"}],"stateMutability":"view"},{"type":"function","name":"nonce","inputs":[{"name":"","type":"address","internalType":"address"}],"outputs":[{"name":"","type":"uint256","internalType":"uint256"}],"stateMutability":"view"},{"type":"function","name":"nonceEquals","inputs":[{"name":"makerAddress","type":"address","internalType":"address"},{"name":"makerNonce","type":"uint256","internalType":"uint256"}],"outputs":[{"name":"","type":"bool","internalType":"bool"}],"stateMutability":"view"},{"type":"function","name":"or","inputs":[{"name":"offsets","type":"uint256","internalType":"uint256"},{"name":"data","type":"bytes","internalType":"bytes"}],"outputs":[{"name":"","type":"bool","internalType":"bool"}],"stateMutability":"view"},{"type":"function","name":"owner","inputs":[],"outputs":[{"name":"","type":"address","internalType":"address"}],"stateMutability":"view"},{"type":"function","name":"remaining","inputs":[{"name":"orderHash","type":"bytes32","internalType":"bytes32"}],"outputs":[{"name":"","type":"uint256","internalType":"uint256"}],"stateMutability":"view"},{"type":"function","name":"remainingRaw","inputs":[{"name":"orderHash","type":"bytes32","internalType":"bytes32"}],"outputs":[{"name":"","type":"uint256","internalType":"uint256"}],"stateMutability":"view"},{"type":"function","name":"remainingsRaw","inputs":[{"name":"orderHashes","type":"bytes32[]","internalType":"bytes32[]"}],"outputs":[{"name":"","type":"uint256[]","internalType":"uint256[]"}],"stateMutability":"view"},{"type":"function","name":"renounceOwnership","inputs":[],"outputs":[],"stateMutability":"nonpayable"},{"type":"function","name":"rescueFunds","inputs":[{"name":"token","type":"address","internalType":"contract IERC20"},{"name":"amount","type":"uint256","internalType":"uint256"}],"outputs":[],"stateMutability":"nonpayable"},{"type":"function","name":"simulate","inputs":[{"name":"target","type":"address","internalType":"address"},{"name":"data","type":"bytes","internalType":"bytes"}],"outputs":[],"stateMutability":"nonpayable"},{"type":"function","name":"swap","inputs":[{"name":"executor","type":"address","internalType":"contract IAggregationExecutor"},{"name":"desc","type":"tuple","internalType":"struct GenericRouter.SwapDescription","components":[{"name":"srcToken","type":"address","internalType":"contract IERC20"},{"name":"dstToken","type":"address","internalType":"contract IERC20"},{"name":"srcReceiver","type":"address","internalType":"address payable"},{"name":"dstReceiver","type":"address","internalType":"address payable"},{"name":"amount","type":"uint256","internalType":"uint256"},{"name":"minReturnAmount","type":"uint256","internalType":"uint256"},{"name":"flags","type":"uint256","internalType":"uint256"}]},{"name":"permit","type":"bytes","internalType":"bytes"},{"name":"data","type":"bytes","internalType":"bytes"}],"outputs":[{"name":"returnAmount","type":"uint256","internalType":"uint256"},{"name":"spentAmount","type":"uint256","internalType":"uint256"}],"stateMutability":"payable"},{"type":"function","name":"timestampBelow","inputs":[{"name":"time","type":"uint256","internalType":"uint256"}],"outputs":[{"name":"","type":"bool","internalType":"bool"}],"stateMutability":"view"},{"type":"function","name":"timestampBelowAndNonceEquals","inputs":[{"name":"timeNonceAccount","type":"uint256","internalType":"uint256"}],"outputs":[{"name":"","type":"bool","internalType":"bool"}],"stateMutability":"view"},{"type":"function","name":"transferOwnership","inputs":[{"name":"newOwner","type":"address","internalType":"address"}],"outputs":[],"stateMutability":"nonpayable"},{"type":"function","name":"uniswapV3Swap","inputs":[{"name":"amount","type":"uint256","internalType":"uint256"},{"name":"minReturn","type":"uint256","internalType":"uint256"},{"name":"pools","type":"uint256[]","internalType":"uint256[]"}],"outputs":[{"name":"returnAmount","type":"uint256","internalType":"uint256"}],"stateMutability":"payable"},{"type":"function","name":"uniswapV3SwapCallback","inputs":[{"name":"amount0Delta","type":"int256","internalType":"int256"},{"name":"amount1Delta","type":"int256","internalType":"int256"},{"name":"","type":"bytes","internalType":"bytes"}],"outputs":[],"stateMutability":"nonpayable"},{"type":"function","name":"uniswapV3SwapTo","inputs":[{"name":"recipient","type":"address","internalType":"address payable"},{"name":"amount","type":"uint256","internalType":"uint256"},{"name":"minReturn","type":"uint256","internalType":"uint256"},{"name":"pools","type":"uint256[]","internalType":"uint256[]"}],"outputs":[{"name":"returnAmount","type":"uint256","internalType":"uint256"}],"stateMutability":"payable"},{"type":"function","name":"uniswapV3SwapToWithPermit","inputs":[{"name":"recipient","type":"address","internalType":"address payable"},{"name":"srcToken","type":"address","internalType":"contract IERC20"},{"name":"amount","type":"uint256","internalType":"uint256"},{"name":"minReturn","type":"uint256","internalType":"uint256"},{"name":"pools","type":"uint256[]","internalType":"uint256[]"},{"name":"permit","type":"bytes","internalType":"bytes"}],"outputs":[{"name":"returnAmount","type":"uint256","internalType":"uint256"}],"stateMutability":"nonpayable"},{"type":"function","name":"unoswap","inputs":[{"name":"srcToken","type":"address","internalType":"contract IERC20"},{"name":"amount","type":"uint256","internalType":"uint256"},{"name":"minReturn","type":"uint256","internalType":"uint256"},{"name":"pools","type":"uint256[]","internalType":"uint256[]"}],"outputs":[{"name":"returnAmount","type":"uint256","internalType":"uint256"}],"stateMutability":"payable"},{"type":"function","name":"unoswapTo","inputs":[{"name":"recipient","type":"address","internalType":"address payable"},{"name":"srcToken","type":"address","internalType":"contract IERC20"},{"name":"amount","type":"uint256","internalType":"uint256"},{"name":"minReturn","type":"uint256","internalType":"uint256"},{"name":"pools","type":"uint256[]","internalType":"uint256[]"}],"outputs":[{"name":"returnAmount","type":"uint256","internalType":"uint256"}],"stateMutability":"payable"},{"type":"function","name":"unoswapToWithPermit","inputs":[{"name":"recipient","type":"address","internalType":"address payable"},{"name":"srcToken","type":"address","internalType":"contract IERC20"},{"name":"amount","type":"uint256","internalType":"uint256"},{"name":"minReturn","type":"uint256","internalType":"uint256"},{"name":"pools","type":"uint256[]","internalType":"uint256[]"},{"name":"permit","type":"bytes","internalType":"bytes"}],"outputs":[{"name":"returnAmount","type":"uint256","internalType":"uint256"}],"stateMutability":"nonpayable"},{"type":"event","name":"NonceIncreased","inputs":[{"name":"maker","type":"address","indexed":true,"internalType":"address"},{"name":"newNonce","type":"uint256","indexed":false,"internalType":"uint256"}],"anonymous":false},{"type":"event","name":"OrderCanceled","inputs":[{"name":"maker","type":"address","indexed":true,"internalType":"address"},{"name":"orderHash","type":"bytes32","indexed":false,"internalType":"bytes32"},{"name":"remainingRaw","type":"uint256","indexed":false,"internalType":"uint256"}],"anonymous":false},{"type":"event","name":"OrderFilled","inputs":[{"name":"maker","type":"address","indexed":true,"internalType":"address"},{"name":"orderHash","type":"bytes32","indexed":false,"internalType":"bytes32"},{"name":"remaining","type":"uint256","indexed":false,"internalType":"uint256"}],"anonymous":false},{"type":"event","name":"OrderFilledRFQ","inputs":[{"name":"orderHash","type":"bytes32","indexed":false,"internalType":"bytes32"},{"name":"makingAmount","type":"uint256","indexed":false,"internalType":"uint256"}],"anonymous":false},{"type":"event","name":"OwnershipTransferred","inputs":[{"name":"previousOwner","type":"address","indexed":true,"internalType":"address"},{"name":"newOwner","type":"address","indexed":true,"internalType":"address"}],"anonymous":false},{"type":"error","name":"AccessDenied","inputs":[]},{"type":"error","name":"AdvanceNonceFailed","inputs":[]},{"type":"error","name":"AlreadyFilled","inputs":[]},{"type":"error","name":"ArbitraryStaticCallFailed","inputs":[]},{"type":"error","name":"BadPool","inputs":[]},{"type":"error","name":"BadSignature","inputs":[]},{"type":"error","name":"ETHTransferFailed","inputs":[]},{"type":"error","name":"ETHTransferFailed","inputs":[]},{"type":"error","name":"EmptyPools","inputs":[]},{"type":"error","name":"EthDepositRejected","inputs":[]},{"type":"error","name":"GetAmountCallFailed","inputs":[]},{"type":"error","name":"IncorrectDataLength","inputs":[]},{"type":"error","name":"InsufficientBalance","inputs":[]},{"type":"error","name":"InvalidMsgValue","inputs":[]},{"type":"error","name":"InvalidMsgValue","inputs":[]},{"type":"error","name":"InvalidatedOrder","inputs":[]},{"type":"error","name":"MakingAmountExceeded","inputs":[]},{"type":"error","name":"MakingAmountTooLow","inputs":[]},{"type":"error","name":"OnlyOneAmountShouldBeZero","inputs":[]},{"type":"error","name":"OrderExpired","inputs":[]},{"type":"error","name":"PermitLengthTooLow","inputs":[]},{"type":"error","name":"PredicateIsNotTrue","inputs":[]},{"type":"error","name":"PrivateOrder","inputs":[]},{"type":"error","name":"RFQBadSignature","inputs":[]},{"type":"error","name":"RFQPrivateOrder","inputs":[]},{"type":"error","name":"RFQSwapWithZeroAmount","inputs":[]},{"type":"error","name":"RFQZeroTargetIsForbidden","inputs":[]},{"type":"error","name":"ReentrancyDetected","inputs":[]},{"type":"error","name":"RemainingAmountIsZero","inputs":[]},{"type":"error","name":"ReservesCallFailed","inputs":[]},{"type":"error","name":"ReturnAmountIsNotEnough","inputs":[]},{"type":"error","name":"SafePermitBadLength","inputs":[]},{"type":"error","name":"SafeTransferFailed","inputs":[]},{"type":"error","name":"SafeTransferFromFailed","inputs":[]},{"type":"error","name":"SimulationResults","inputs":[{"name":"success","type":"bool","internalType":"bool"},{"name":"res","type":"bytes","internalType":"bytes"}]},{"type":"error","name":"SwapAmountTooLarge","inputs":[]},{"type":"error","name":"SwapWithZeroAmount","inputs":[]},{"type":"error","name":"TakingAmountExceeded","inputs":[]},{"type":"error","name":"TakingAmountIncreased","inputs":[]},{"type":"error","name":"TakingAmountTooHigh","inputs":[]},{"type":"error","name":"TransferFromMakerToTakerFailed","inputs":[]},{"type":"error","name":"TransferFromTakerToMakerFailed","inputs":[]},{"type":"error","name":"UnknownOrder","inputs":[]},{"type":"error","name":"WrongAmount","inputs":[]},{"type":"error","name":"WrongGetter","inputs":[]},{"type":"error","name":"ZeroAddress","inputs":[]},{"type":"error","name":"ZeroMinReturn","inputs":[]},{"type":"error","name":"ZeroReturnAmount","inputs":[]},{"type":"error","name":"ZeroTargetIsForbidden","inputs":[]}],"bytecode":{"object":"0x6101e06040523480156200001257600080fd5b5060405162005423380380620054238339810160408190526200003591620001d3565b604080518082018252601881527f31696e6368204167677265676174696f6e20526f75746572000000000000000060208083019182528351808501855260018152603560f81b908201529151902060e08190527fceebf77a833b30520287ddd9478ff51abbdffa30aa90a8d655dba0e8a79ce0c16101008190524660a081815285517f8b73c3c69bb8fe3d512ecc4cf759cc79239f7b179b0ffacaa9a75d522b39400f818701819052818801959095526060810193909352608080840192909252308382018190528651808503909201825260c09384019096528051940193909320909252919052610120528080808080620001313362000183565b6001600160a01b039081166101405290811661016052908116610180529081166101a0529081166101c05281166200017c5760405163d92e233d60e01b815260040160405180910390fd5b5062000205565b600080546001600160a01b038381166001600160a01b0319831681178455604051919092169283917f8be0079c531659141344cd1fd0a4f28419497f9722a3daafe3b4186f6b6457e09190a35050565b600060208284031215620001e657600080fd5b81516001600160a01b0381168114620001fe57600080fd5b9392505050565b60805160a05160c05160e05161010051610120516101405161016051610180516101a0516101c051615146620002dd600039600081816131f50152818161326e015281816132f2015281816133f10152818161345b01526134f001526000505060008181611dc301528181611ea70152611f20015260008181612a330152612ba101526000818161088a0152818161090601528181610a4b01528181610b220152610b6901526000612cb001526000612cff01526000612cda01526000612c3301526000612c5d01526000612c8701526151466000f3fe6080604052600436106102765760003560e01c80637e54f0921161014f578063bf15fcd8116100c1578063d365c6951161007a578063d365c69514610793578063e449022e146107b3578063e5d7bde6146107c6578063f2fde38b146107d9578063f78dc253146107f9578063fa461e331461080c57600080fd5b8063bf15fcd8146106c4578063bfa75143146106e4578063c53a029214610704578063c805a66614610719578063ca4ece2214610739578063cf6fc6e31461075957600080fd5b8063942461bb11610113578063942461bb146106115780639570eeee1461063e578063bc1ed74c14610651578063bc80f1a814610671578063bd61951d14610684578063bddccd35146106a457600080fd5b80637e54f09214610574578063825caba1146105a157806383197ef0146105c157806384bd6d29146105d65780638da5cb5b146105e957600080fd5b80635a099843116101e857806370ae92d2116101ac57806370ae92d2146104b257806370ccbd31146104df578063715018a6146104ff57806372c244a814610514578063742611451461053457806378e3214f1461055457600080fd5b80635a0998431461042c57806362e238bb1461043f57806363592c2b146104525780636c838250146104725780636fe7b0ba1461049257600080fd5b80632d9a56f61161023a5780632d9a56f61461033b57806337e7316f1461035b5780633c15fd911461037b5780633eca9c0a1461039b5780634f38e2b8146103c957806356f16124146103e957600080fd5b80630502b1c51461028a578063093d4fa5146102b057806312aa3caf146102c35780632521b930146102eb5780632cc2878d1461030b57600080fd5b366102855761028361082c565b005b600080fd5b61029d6102983660046141c7565b610836565b6040519081526020015b60405180910390f35b61029d6102be366004614230565b610850565b6102d66102d13660046142fb565b610c7d565b604080519283526020830191909152016102a7565b3480156102f757600080fd5b5061029d61030636600461439c565b610f05565b34801561031757600080fd5b5061032b610326366004614443565b610f35565b60405190151581526020016102a7565b34801561034757600080fd5b506102d6610356366004614475565b610f7f565b34801561036757600080fd5b5061029d610376366004614475565b61104c565b34801561038757600080fd5b5061029d61039636600461439c565b611066565b6103ae6103a9366004614596565b61108a565b604080519384526020840192909252908201526060016102a7565b3480156103d557600080fd5b5061032b6103e43660046145f2565b6110ac565b3480156103f557600080fd5b5061029d61040436600461463d565b6001600160a01b03919091166000908152600360209081526040808320938352929052205490565b6103ae61043a366004614669565b6110d7565b6103ae61044d3660046146de565b6111e4565b34801561045e57600080fd5b5061032b61046d366004614443565b421090565b34801561047e57600080fd5b5061032b61048d366004614475565b61120e565b34801561049e57600080fd5b5061032b6104ad3660046145f2565b61123d565b3480156104be57600080fd5b5061029d6104cd366004614789565b60016020526000908152604090205481565b3480156104eb57600080fd5b506103ae6104fa3660046147a6565b611263565b34801561050b57600080fd5b506102836112aa565b34801561052057600080fd5b5061028361052f366004614849565b6112bc565b34801561054057600080fd5b5061032b61054f3660046145f2565b611352565b34801561056057600080fd5b5061028361056f36600461463d565b6113c4565b34801561058057600080fd5b5061029d61058f366004614443565b60009081526002602052604090205490565b3480156105ad57600080fd5b506102836105bc366004614443565b6113e4565b3480156105cd57600080fd5b506102836113f3565b61029d6105e436600461486c565b6113fe565b3480156105f557600080fd5b506000546040516001600160a01b0390911681526020016102a7565b34801561061d57600080fd5b5061063161062c3660046148e3565b611411565b6040516102a7919061497c565b6103ae61064c3660046149c0565b6114c9565b34801561065d57600080fd5b5061029d61066c366004614443565b6115bd565b61029d61067f3660046141c7565b6115f4565b34801561069057600080fd5b5061028361069f3660046149fd565b611603565b3480156106b057600080fd5b506102836106bf366004614a38565b61168b565b3480156106d057600080fd5b5061029d6106df3660046149fd565b611696565b3480156106f057600080fd5b5061032b6106ff3660046145f2565b6116c8565b34801561071057600080fd5b5061028361173b565b34801561072557600080fd5b5061029d610734366004614a5a565b611745565b34801561074557600080fd5b5061032b6107543660046145f2565b61177c565b34801561076557600080fd5b5061032b61077436600461463d565b6001600160a01b03919091166000908152600160205260409020541490565b34801561079f57600080fd5b506103ae6107ae366004614b1d565b6117a3565b61029d6107c1366004614c0d565b61181e565b6103ae6107d4366004614c5f565b61182d565b3480156107e557600080fd5b506102836107f4366004614789565b612160565b61029d610807366004614d22565b6121d6565b34801561081857600080fd5b50610283610827366004614d8b565b6121f1565b6108346123bf565b565b60006108463387878787876123df565b9695505050505050565b60006001600160a01b0388161580156108885786341461088357604051631841b4e160e01b815260040160405180910390fd5b6109a4565b7f00000000000000000000000000000000000000000000000000000000000000006001600160a01b0316896001600160a01b0316036109705750600134156108e357604051631841b4e160e01b815260040160405180910390fd5b6040516323b872dd60e01b808252336004830152306024830152604482018990527f000000000000000000000000000000000000000000000000000000000000000091632e1a7d4d60e01b9060008060648382885af1610946573d6000823e3d81fd5b8181528a60048201526000806024836000885af1610967573d6000823e3d81fd5b505050506109a4565b341561098f57604051631841b4e160e01b815260040160405180910390fd5b6109a46001600160a01b038a16338d8a6126ed565b8015610a385760008b905060006327a9b42460e01b90506040518181528a60048201528960248201528860448201528760648201528c60848201528560ff1c601b0160a48201528660c48201526001600160ff1b03861660e482015261012061010482015264a62929c86960d31b610143820152600080610149838d875af1610a30573d6000823e3d81fd5b505050610c6e565b6001600160a01b0388161580610a7f57507f00000000000000000000000000000000000000000000000000000000000000006001600160a01b0316886001600160a01b0316145b15610bdc5760405163132da19360e21b808252600482018b90526024820189905260448201889052606482018790528c918a1560018114610ac557306084830152610acc565b8d60848301525b508560ff1c601b0160a48201528660c48201526001600160ff1b03861660e482015261012061010482015264a62929c86960d31b610143820152600080610149836000875af1610b1f573d6000823e3d81fd5b507f00000000000000000000000000000000000000000000000000000000000000006001600160a01b03168a6001600160a01b031603610bd557604051630d0e30db60e41b8082527f00000000000000000000000000000000000000000000000000000000000000009163a9059cbb60e01b906000806004838f885af1610ba9573d6000823e3d81fd5b8181528f60048201528b60248201526000806044836000885af1610bd0573d6000823e3d81fd5b505050505b5050610c6e565b60008b90506000632b651a6c60e01b90506040518181528b60048201528a60248201528960448201528860648201528760848201528c60a48201528560ff1c601b0160c48201528660e48201526001600160ff1b03861661010482015261014061012482015264a62929c86960d31b610163820152600080610169836000875af1610c6a573d6000823e3d81fd5b5050505b50939998505050505050505050565b6000808660a00135600003610ca4576040516298b77960e21b815260040160405180910390fd5b6000610cb36020890189614789565b90506000610cc760408a0160208b01614789565b90506000610cdd836001600160a01b0316612771565b905060c08a013560021615610d225780610cf8576000610cfe565b89608001355b3411610d1d57604051631841b4e160e01b815260040160405180910390fd5b610d53565b80610d2e576000610d34565b89608001355b3414610d5357604051631841b4e160e01b815260040160405180910390fd5b80610d9c578715610d7257610d726001600160a01b0384168a8a6127aa565b610d9c33610d8660608d0160408e01614789565b6001600160a01b038616919060808e01356126ed565b610dad8b338c608001358a8a612818565b60808a01359350610dc76001600160a01b0383163061285f565b945084600003610dea576040516328ebf24760e01b815260040160405180910390fd5b6000199094019360c08a013560011615610e83576000610e136001600160a01b0385163061285f565b90506001811115610e425760001901610e2c8186614de7565b9450610e426001600160a01b03851633836128f1565b610e508560a08d0135614dfa565b610e5e60808d013588614dfa565b1015610e7d5760405163f32bec2f60e01b815260040160405180910390fd5b50610ea8565b8960a00135851015610ea85760405163f32bec2f60e01b815260040160405180910390fd5b600080610ebb60808d0160608e01614789565b6001600160a01b031614610ede57610ed960808c0160608d01614789565b610ee0565b335b9050610ef66001600160a01b03841682886128f1565b50505050965096945050505050565b6000610f1b6001600160a01b03891684846127aa565b610f2889888888886129b8565b9998505050505050505050565b600060d082901c60a083901c65ffffffffffff1683610f5383421090565b8015610f7657506001600160a01b03811660009081526001602052604090205482145b95945050505050565b60008033610f936080850160608601614789565b6001600160a01b031614610fba57604051634ca8886760e01b815260040160405180910390fd5b610fc38361104c565b600081815260026020526040902054925090506000198201610ff8576040516341a26a6360e01b815260040160405180910390fd5b604080518281526020810184905233917fcbfa7d191838ece7ba4783ca3a30afd316619b7f368094b57ee7ffde9a923db1910160405180910390a26000818152600260205260409020600190559092909150565b6000611060611059612c26565b8390612d4d565b92915050565b600061107c6001600160a01b03891684846127aa565b610f288989898989896123df565b600080600061109c87878787336110d7565b9250925092509450945094915050565b60008060006110bb8585612dcc565b915091508180156110cb57508581115b925050505b9392505050565b60008060006110ee6110e7612c26565b8990612f5b565b9050600160fe1b85161561116257600160fd1b851615801590611112575060418614155b15611130576040516317c2b1f160e01b815260040160405180910390fd5b6111408860600151828989612fad565b61115d576040516317c2b1f160e01b815260040160405180910390fd5b61118f565b6111728860600151828989613002565b61118f576040516317c2b1f160e01b815260040160405180910390fd5b61119a888686613069565b60408051848152602081018490529295509093507fc3b639f02b125bfa160e50739b8c44eb2d1b6908e2b6d5925c6d770f2ca78127910160405180910390a1955095509592505050565b60008060006111fa8b8b8b8b8b8b8b8b3361182d565b925092509250985098509895505050505050565b600080600061122461121f856135a9565b612dcc565b915091508180156112355750806001145b949350505050565b600080600061124c8585612dcc565b915091508180156110cb5750909414949350505050565b600080600061128a85858c604001516001600160a01b03166127aa9092919063ffffffff16565b6112978a8a8a8a8a6110d7565b9250925092509750975097945050505050565b6112b26135c0565b610834600061361a565b8060ff166000036112e05760405163bd71636d60e01b815260040160405180910390fd5b336000908152600160205260408120546112fe9060ff841690614e11565b336000818152600160205260409081902083905551919250907ffc69110dd11eb791755e4abd6b7d281bae236de95736d38a23782814be5e10db906113469084815260200190565b60405180910390a25050565b60008080805b63ffffffff87821c16925082156113b75760008061137b61121f86868a8c614e24565b9150915081801561138c5750806001145b1561139f576001955050505050506110d0565b508392506113b09050602082614e11565b9050611358565b5060009695505050505050565b6113cc6135c0565b6113e06001600160a01b03831633836128f1565b5050565b6113f03382600061366a565b50565b6113fb6135c0565b33ff5b6000610f2889338a8a8a8a8a8a8a610850565b6060600082516001600160401b0381111561142e5761142e6144a9565b604051908082528060200260200182016040528015611457578160200160208202803683370190505b50905060005b83518110156114c2576002600085838151811061147c5761147c614e4e565b60200260200101518152602001908152602001600020548282815181106114a5576114a5614e4e565b6020908102919091010152806114ba81614e64565b91505061145d565b5092915050565b60008060006114e06114d9612c26565b8890612f5b565b9050600160fe1b84161561153c57600160fd1b84161561152c5761150a87606001518288886136e5565b611527576040516317c2b1f160e01b815260040160405180910390fd5b611569565b61150a876060015182888861374f565b61154c87606001518288886137a4565b611569576040516317c2b1f160e01b815260040160405180910390fd5b611574878533613069565b60408051848152602081018490529295509093507fc3b639f02b125bfa160e50739b8c44eb2d1b6908e2b6d5925c6d770f2ca78127910160405180910390a19450945094915050565b600081815260026020526040812054806115ea57604051635c1c6f4b60e11b815260040160405180910390fd5b6000190192915050565b600061084686868686866129b8565b600080846001600160a01b03168484604051611620929190614e7d565b600060405180830381855af49150503d806000811461165b576040519150601f19603f3d011682016040523d82523d6000602084013e611660565b606091505b5091509150818160405163032695f960e31b8152600401611682929190614edd565b60405180910390fd5b6113e033838361366a565b60008060006116a68686866137f3565b9150915081610f7657604051631f1b8f6160e01b815260040160405180910390fd5b60008080805b63ffffffff87821c169250821561172e576000806116f161121f86868a8c614e24565b91509150811580611703575080600114155b15611716576000955050505050506110d0565b508392506117279050602082614e11565b90506116ce565b5060019695505050505050565b61083460016112bc565b600061175b6001600160a01b038b1684846127aa565b61176c8c8c8c8c8c8c8c8c8c610850565b9c9b505050505050505050505050565b600080600061178b8585612dcc565b915091508180156110cb575094909410949350505050565b6000808060148410156117c95760405163367871b760e21b815260040160405180910390fd5b60003660006117d88888613821565b919450925090506117f36001600160a01b03841683836127aa565b5050506118078e8e8e8e8e8e8e8e8e61182d565b9250925092509b509b509b98505050505050505050565b6000610f7633868686866129b8565b600080806001600160a01b0384166118585760405163b0c4d05f60e01b815260040160405180910390fd5b6118618c61104c565b6000818152600260205260409020548894508793509091508c90600019810161189d57604051633b3bcd9960e21b815260040160405180910390fd5b60006118af60c0840160a08501614789565b6001600160a01b0316141580156118de5750336118d260c0840160a08501614789565b6001600160a01b031614155b156118fc57604051636a6fed7f60e11b815260040160405180910390fd5b806119cd5761191c6119146080840160608501614789565b848f8f613002565b61193957604051635cd5d23360e01b815260040160405180910390fd5b5060c081013536600061194b8461385f565b91509150600160ff1b89166000148015611966575060148110155b156119c657600036600061197a8585613821565b919450925090506119956001600160a01b03841683836127aa565b600088815260026020526040902054156119c25760405163c5f2be5160e01b815260040160405180910390fd5b5050505b50506119d2565b600019015b60006119dd836135a9565b90501115611a0b576119ee8261120e565b611a0b57604051635b314e0160e11b815260040160405180910390fd5b8415841503611a2c576040516271529160e11b815260040160405180910390fd5b83600003611aa35780851115611a40578094505b611a5e611a4c8361386d565b8460c00135888660e00135868961387b565b93506001600160ff1b038716611a748682614dfa565b611a7e8b87614dfa565b1115611a9d5760405163fb8ae12960e01b815260040160405180910390fd5b50611b3c565b611ac1611aaf836138b1565b8460e00135878660c0013586896138bf565b945080851115611afd57809450611ada611a4c8361386d565b935087841115611afd576040516324e7108160e21b815260040160405180910390fd5b6001600160ff1b038716611b118582614dfa565b611b1b8a88614dfa565b1015611b3a5760405163240f51c960e11b815260040160405180910390fd5b505b841580611b47575083155b15611b6557604051637dd2d13b60e11b815260040160405180910390fd5b84810390508060010160026000858152602001908152602001600020819055508d6060016020810190611b989190614789565b6001600160a01b03167fb9ed0243fdf00f0545c63a0af8850c090d86bb46682baec4bf3c496814fe4f028483604051611bdb929190918252602082015260400190565b60405180910390a26014611bee836138d3565b905010611c91576000366000611c0b611c06866138d3565b613821565b919450925090506001600160a01b0383166396a10e3387611c326080890160608a01614789565b338c8c8a89896040518963ffffffff1660e01b8152600401611c5b989796959493929190614f21565b600060405180830381600087803b158015611c7557600080fd5b505af1158015611c89573d6000803e3d6000fd5b505050505050505b611cc4611ca46040840160208501614789565b611cb46080850160608601614789565b8888611cbf876138e1565b6138ef565b611ce157604051630e1407e960e31b815260040160405180910390fd5b60148a10611db9576000366000611cf88e8e613821565b9250925092506000836001600160a01b031663ccee33d7338b8b87876040518663ffffffff1660e01b8152600401611d34959493929190614f73565b6020604051808303816000875af1158015611d53573d6000803e3d6000fd5b505050506040513d601f19601f82011682018060405250810190611d779190614fa1565b90508781118015611d965750611d94611d8f876138b1565b61394a565b155b8015611dab5750611da9611d8f8761386d565b155b15611db4578097505b505050505b6001600160a01b037f000000000000000000000000000000000000000000000000000000000000000016611df36060840160408501614789565b6001600160a01b0316148015611e095750600034115b156120075783341015611e2f57604051631841b4e160e01b815260040160405180910390fd5b83341115611ea557604051600090339034879003908381818185875af1925050503d8060008114611e7c576040519150601f19603f3d011682016040523d82523d6000602084013e611e81565b606091505b5050905080611ea35760405163b12d13eb60e01b815260040160405180910390fd5b505b7f00000000000000000000000000000000000000000000000000000000000000006001600160a01b031663d0e30db0856040518263ffffffff1660e01b81526004016000604051808303818588803b158015611f0057600080fd5b505af1158015611f14573d6000803e3d6000fd5b50506001600160a01b037f000000000000000000000000000000000000000000000000000000000000000016925063a9059cbb915060009050611f5d60a0860160808701614789565b6001600160a01b031614611f8057611f7b60a0850160808601614789565b611f90565b611f906080850160608601614789565b6040516001600160e01b031960e084901b1681526001600160a01b039091166004820152602481018790526044016020604051808303816000875af1158015611fdd573d6000803e3d6000fd5b505050506040513d601f19601f820116820180604052508101906120019190614fba565b506120a6565b341561202657604051631841b4e160e01b815260040160405180910390fd5b6120896120396060840160408501614789565b33600061204c60a0870160808801614789565b6001600160a01b03161461206f5761206a60a0860160808701614789565b61207f565b61207f6080860160608701614789565b87611cbf8761398b565b6120a65760405163478a520560e01b815260040160405180910390fd5b60146120b183613999565b90501061214f5760003660006120c9611c0686613999565b919450925090506001600160a01b038316633504ed62876120f06080890160608a01614789565b338c8c8a89896040518963ffffffff1660e01b8152600401612119989796959493929190614f21565b600060405180830381600087803b15801561213357600080fd5b505af1158015612147573d6000803e3d6000fd5b505050505050505b505099509950999650505050505050565b6121686135c0565b6001600160a01b0381166121cd5760405162461bcd60e51b815260206004820152602660248201527f4f776e61626c653a206e6577206f776e657220697320746865207a65726f206160448201526564647265737360d01b6064820152608401611682565b6113f08161361a565b60006121e68787878787876123df565b979650505050505050565b612231565b3d6000803e3d6000fd5b8061220d5761220d6121f6565b600160005114601f3d11163d1517806113e057633c9fd93960e21b60005260046000fd5b60405160158101730dfe1681d21220a7ddca3f43a9059cbb23b872dd60601b8252602081600484335afa612267576122676121f6565b60208082016004808501335afa612280576122806121f6565b602060408201600460088501335afa61229b5761229b6121f6565b60008060008813600181146122b957602084015192508791506122c1565b835192508891505b507fff1f98431c8ad98523631ae4a59f267346ea31f984000000000000000000000084526060832083527fe34f199b19b2b4f47f68442619d555527d244f78a3297ea89325f843f87b8b5460208401526001600160a01b03605585201692503383181561233957635960139160e11b60005260046000fd5b6084359250730dfe1681d21220a7ddca3f43a9059cbb23b872dd60601b8452308314600181146123915783601486015233603486015281605486015261238c602060006064601089016000885af1612200565b6123b4565b3360108601528160308601526123b4602060006044600c89016000885af1612200565b505050505050505050565b32330361083457604051631b10b0f960e01b815260040160405180910390fd5b600061248f565b630240bc6b60e21b81526000604082600484875afa612407576124076121f6565b60603d1461242057632173563760e21b60005260046000fd5b81516020830151861561242f57905b8785029250633b9aca0082028301818402049250505063022c0d9f60e01b8252841594508415810260048301528481026024830152866044830152608060648301526000608483015260008060a4846000885af1610846576108466121f6565b6dffffffffffffffffffffffffffff8511156124b657636785a69d60e11b60005260046000fd5b60405160c081016040528260051b8401843588600081146125265734156124e857631841b4e160e01b60005260046000fd5b6323b872dd60e01b84523360048501526001600160a01b03821660248501528860448501526125216020600060648760008f5af1612200565b6125bc565b34891461253e57631841b4e160e01b60005260046000fd5b630d0e30db60e41b84526000806004868c73c02aaa39b223fe8d0a0e5c4f27ead9083c756cc25af1612572576125726121f6565b63a9059cbb60e01b84526001600160a01b0382166004850152886024850152600080604486600073c02aaa39b223fe8d0a0e5c4f27ead9083c756cc25af16125bc576125bc6121f6565b50879350602086015b8281101561260d5780356126016001600160a01b03821663ffffffff60a01b851660a01c600160ff1b86166001600160a01b0387168a8a6123e6565b955091506020016125c5565b50600160fe1b8116801561269c576126443063ffffffff60a01b841660a01c600160ff1b85166001600160a01b03861689896123e6565b9450632e1a7d4d60e01b8452846004850152600080602486600073c02aaa39b223fe8d0a0e5c4f27ead9083c756cc25af1612681576126816121f6565b600080600080888f5af1612697576126976121f6565b6126c8565b6126c58b63ffffffff60a01b841660a01c600160ff1b85166001600160a01b03861689896123e6565b94505b50505050838110156108465760405163f32bec2f60e01b815260040160405180910390fd5b60006323b872dd60e01b905060006040518281528560048201528460248201528360448201526020600060648360008b5af1915050801561274b573d801561274157600160005114601f3d11169150612749565b6000873b1191505b505b806127695760405163f405907160e01b815260040160405180910390fd5b505050505050565b60006001600160a01b038216158061106057506001600160a01b03821673eeeeeeeeeeeeeeeeeeeeeeeeeeeeeeeeeeeeeeee1492915050565b600060e08290036127cf576127c88463d505accf60e01b85856139a7565b9050612805565b6101008290036127ec576127c8846323f2ebc360e21b85856139a7565b604051636827585760e01b815260040160405180910390fd5b80612812576128126139f9565b50505050565b6040516325b2724960e11b80825260048201869052908284602483013784836024830101526000808460440183348b5af1612856573d6000823e3d81fd5b50505050505050565b600061286a83612771565b1561288057506001600160a01b03811631611060565b6040516370a0823160e01b81526001600160a01b0383811660048301528416906370a0823190602401602060405180830381865afa1580156128c6573d6000803e3d6000fd5b505050506040513d601f19601f820116820180604052508101906128ea9190614fa1565b9050611060565b80156129b35761290083612771565b1561299f578047101561292657604051631e9acf1760e31b815260040160405180910390fd5b6000826001600160a01b03168261138890604051600060405180830381858888f193505050503d8060008114612978576040519150601f19603f3d011682016040523d82523d6000602084013e61297d565b606091505b50509050806128125760405163b12d13eb60e01b815260040160405180910390fd5b6129b36001600160a01b0384168383613a05565b505050565b6000818082036129db576040516333f3e07b60e11b815260040160405180910390fd5b8591506000198101341515600080600160fd1b888886818110612a0057612a00614e4e565b90506020020135161190508115612aa657883414612a3157604051631841b4e160e01b815260040160405180910390fd5b7f00000000000000000000000000000000000000000000000000000000000000006001600160a01b031663d0e30db08a6040518263ffffffff1660e01b81526004016000604051808303818588803b158015612a8c57600080fd5b505af1158015612aa0573d6000803e3d6000fd5b50505050505b6001841115612b4657612ae03083612abe5733612ac0565b305b89896000818110612ad357612ad3614e4e565b9050602002013588613a35565b945060015b83811015612b1b57612b1130308a8a85818110612b0457612b04614e4e565b9050602002013589613a35565b9550600101612ae5565b50612b3f81612b2a578a612b2c565b305b30898987818110612ad357612ad3614e4e565b9450612b64565b612b6181612b54578a612b56565b305b83612abe5733612ac0565b94505b87851015612b855760405163f32bec2f60e01b815260040160405180910390fd5b8015612c1957604051632e1a7d4d60e01b8152600481018690527f00000000000000000000000000000000000000000000000000000000000000006001600160a01b031690632e1a7d4d90602401600060405180830381600087803b158015612bed57600080fd5b505af1158015612c01573d6000803e3d6000fd5b50612c19925050506001600160a01b038b1686613bd1565b5050505095945050505050565b6000306001600160a01b037f000000000000000000000000000000000000000000000000000000000000000016148015612c7f57507f000000000000000000000000000000000000000000000000000000000000000046145b15612ca957507f000000000000000000000000000000000000000000000000000000000000000090565b50604080517f00000000000000000000000000000000000000000000000000000000000000006020808301919091527f0000000000000000000000000000000000000000000000000000000000000000828401527f000000000000000000000000000000000000000000000000000000000000000060608301524660808301523060a0808401919091528351808403909101815260c0909201909252805191012090565b60003681612d5f610120860186614fdc565b60405191935091507f0a244ca8a150ac294c14fcff9277051ced9a5b23e966a0ff0522e989da23116c9082848237828120610140820152610120876020830137818152610160902060405161190160f01b8152600281018790526022810182905260429020909450610846565b6000806000612ddb8585613cea565b60e01c90506000612dee86866004613d14565b9050632cc2878c198201612e25576001612e0782610f35565b612e12576000612e15565b60015b90945060ff169250612f54915050565b63bf15fcd8821015612eb357636fe7b0ba821015612e7757634f38e2b7198201612e5b576001612e07826103e489896064613d45565b6363592c2a198201612e72576001612e0782421090565b612f42565b636fe7b0b9198201612e95576001612e07826104ad89896064613d45565b6374261144198201612e72576001612e078261054f89896064613d45565b63ca4ece22821015612f065763bf15fcd7198201612ee8576001612edd826106df89896064613d45565b935093505050612f54565b63bfa75142198201612e72576001612e07826106ff89896064613d45565b63ca4ece21198201612f24576001612e078261075489896064613d45565b63cf6fc6e2198201612f42576001612e078261077489896024613d14565b612f4d3087876137f3565b9350935050505b9250929050565b601f199190910180517f74ab4f0cde46aaf927859983f7d04002116dd057d4c4941f6dbfb775c3e31f4582526101008220915260405161190160f01b8152600281019290925260228201526042902090565b600080631626ba7e60e01b905060405181815285600482015260406024820152836044820152838560648301376020600085606401838a5afa15612ff85760203d1460005183141692505b5050949350505050565b60006001600160a01b03851661301a57506000611235565b60408214806130295750604182145b80156130505750846001600160a01b0316613045858585613d75565b6001600160a01b0316145b1561305d57506001611235565b610f7685858585612fad565b6000806001600160a01b03831661309357604051630349722f60e51b815260040160405180910390fd5b606085015160808601516001600160a01b0316158015906130c1575060808601516001600160a01b03163314155b156130df5760405163e8c6632160e01b815260040160405180910390fd5b85516001600160401b03604082901c1680158015906130fd57508042115b1561311b576040516362b439dd60e11b815260040160405180910390fd5b6131278383600061366a565b505060a086015160c08701516001600160fc1b0387166000819003613151578295508194506131c5565b600160ff1b881615613193578281111561317e5760405163551a5b4b60e11b815260040160405180910390fd5b80955061318c838388613e20565b94506131c5565b818111156131b457604051637f902a9360e01b815260040160405180910390fd5b8094506131c2838387613e4e565b95505b50505082600014806131d5575081155b156131f3576040516307b6e79f60e01b815260040160405180910390fd5b7f00000000000000000000000000000000000000000000000000000000000000006001600160a01b031686602001516001600160a01b031614801561323d5750600160fc1b851615155b156133d5576040516323b872dd60e01b81526001600160a01b038281166004830152306024830152604482018590527f000000000000000000000000000000000000000000000000000000000000000016906323b872dd906064016020604051808303816000875af11580156132b7573d6000803e3d6000fd5b505050506040513d601f19601f820116820180604052508101906132db9190614fba565b50604051632e1a7d4d60e01b8152600481018490527f00000000000000000000000000000000000000000000000000000000000000006001600160a01b031690632e1a7d4d90602401600060405180830381600087803b15801561333e57600080fd5b505af1158015613352573d6000803e3d6000fd5b505050506000846001600160a01b03168461138890604051600060405180830381858888f193505050503d80600081146133a8576040519150601f19603f3d011682016040523d82523d6000602084013e6133ad565b606091505b50509050806133cf5760405163b12d13eb60e01b815260040160405180910390fd5b506133ef565b60208601516133ef906001600160a01b03168286866126ed565b7f00000000000000000000000000000000000000000000000000000000000000006001600160a01b031686604001516001600160a01b03161480156134345750600034115b156135675781341461345957604051631841b4e160e01b815260040160405180910390fd5b7f00000000000000000000000000000000000000000000000000000000000000006001600160a01b031663d0e30db0836040518263ffffffff1660e01b81526004016000604051808303818588803b1580156134b457600080fd5b505af11580156134c8573d6000803e3d6000fd5b505060405163a9059cbb60e01b81526001600160a01b038581166004830152602482018790527f000000000000000000000000000000000000000000000000000000000000000016935063a9059cbb925060440190506020604051808303816000875af115801561353d573d6000803e3d6000fd5b505050506040513d601f19601f820116820180604052508101906135619190614fba565b506135a0565b341561358657604051631841b4e160e01b815260040160405180910390fd5b60408601516135a0906001600160a01b03163383856126ed565b50935093915050565b3660006135b7836004613e5b565b91509150915091565b6000546001600160a01b031633146108345760405162461bcd60e51b815260206004820181905260248201527f4f776e61626c653a2063616c6c6572206973206e6f7420746865206f776e65726044820152606401611682565b600080546001600160a01b038381166001600160a01b0319831681178455604051919092169283917f8be0079c531659141344cd1fd0a4f28419497f9722a3daafe3b4186f6b6457e09190a35050565b6001600160a01b038316600090815260036020908152604080832066ffffffffffffff600887901c16808552928190529220549091600160ff86161b8417918083168390036136cc57604051637b8fded160e11b815260040160405180910390fd5b6000938452602091909152604090922091179055505050565b600080631626ba7e60e01b905060405181815285600482015260406024820152604160448201528460648201526001600160ff1b03841660848201528360ff1c601b0160a48201536020600060a5838a5afa15612ff85750600051143d6020141695945050505050565b600080631626ba7e60e01b905060405181815285600482015260406024820152604060448201528460648201528360848201526020600060a4838a5afa15612ff85750600051143d6020141695945050505050565b60006001600160a01b0385166137bc57506000611235565b846001600160a01b03166137d1858585613eb6565b6001600160a01b0316036137e757506001611235565b610f768585858561374f565b60008060405183858237602060008583895afa3d60201416925050811561381957506000515b935093915050565b6000368160148410156138475760405163779ab6bd60e11b815260040160405180910390fd5b505050813560601c9260149092019160131990910190565b3660006135b7836005613e5b565b3660006135b7836003613e5b565b60008681036138965761388f868587613e20565b90506121e6565b6138a588888888888888613f1b565b98975050505050505050565b3660006135b7836002613e5b565b60008681036138965761388f848787613e4e565b3660006135b7836006613e5b565b3660006135b7836000613e5b565b6040516323b872dd60e01b8082526004820187905260248201869052604482018590526000918385606483013760206000856064018360008d5af19050600160005114601f3d11163d15178116925050509695505050505050565b60006001821480156110d057508282600081811061396a5761396a614e4e565b9050013560f81c60f81b6001600160f81b031916600f60fb1b149392505050565b3660006135b7836001613e5b565b3660006135b7836007613e5b565b6000816004016040518581528385600483013760206000838360008b5af1925050508015611235573d80156139e857600160005114601f3d111691506139f0565b6000863b1191505b50949350505050565b6040513d6000823e3d81fd5b613a188363a9059cbb60e01b848461405c565b6129b35760405163fb7f507960e01b815260040160405180910390fd5b6000600160ff1b8316158015613b0b576000846001600160a01b031663128acb088884613a618861409e565b604080516001600160a01b038d1660208201526401000276a491016040516020818303038152906040526040518663ffffffff1660e01b8152600401613aab959493929190615022565b60408051808303816000875af1158015613ac9573d6000803e3d6000fd5b505050506040513d601f19601f82011682018060405250810190613aed919061505d565b915050613b0281613afd90615081565b61410c565b92505050611235565b6000846001600160a01b031663128acb088884613b278861409e565b604080516001600160a01b038d16602082015273fffd8963efd1fc6a506488495d951d5263988d2591016040516020818303038152906040526040518663ffffffff1660e01b8152600401613b80959493929190615022565b60408051808303816000875af1158015613b9e573d6000803e3d6000fd5b505050506040513d601f19601f82011682018060405250810190613bc2919061505d565b509050613b02613afd82615081565b80471015613c215760405162461bcd60e51b815260206004820152601d60248201527f416464726573733a20696e73756666696369656e742062616c616e63650000006044820152606401611682565b6000826001600160a01b03168260405160006040518083038185875af1925050503d8060008114613c6e576040519150601f19603f3d011682016040523d82523d6000602084013e613c73565b606091505b50509050806129b35760405162461bcd60e51b815260206004820152603a60248201527f416464726573733a20756e61626c6520746f2073656e642076616c75652c207260448201527f6563697069656e74206d617920686176652072657665727465640000000000006064820152608401611682565b60006004821015613d0e5760405163779ab6bd60e11b815260040160405180910390fd5b50503590565b600060208201831015613d3a5760405163779ab6bd60e11b815260040160405180910390fd5b509190910135919050565b36600082841015613d695760405163779ab6bd60e11b815260040160405180910390fd5b50509182019291900390565b60006040518260418114613d945760408114613dae5760009150613dd6565b604085013560001a60208301526040856040840137613dd6565b60208501358060ff1c601b01602084015260208660408501376001600160ff1b031660608301525b508015613e18576fa2a8918ca85bafe22016d0b997e4df5f600160ff1b0360608201511015613e1857848152600080526020600060808360015afa5060005191505b509392505050565b600083600181613e308686614dfa565b613e3a9190614e11565b613e449190614de7565b611235919061509d565b600082613e448584614dfa565b366000806005846007811115613e7357613e736150bf565b901b9050613e85610120860186614fdc565b613eaa9161010088013580851c63ffffffff9081169360209290921b861c1691614e24565b92509250509250929050565b60006001600160ff1b0382166fa2a8918ca85bafe22016d0b997e4df5f600160ff1b03811015613e18576040518581528360ff1c601b016020820152846040820152816060820152600080526020600060808360015afa505060005195945050505050565b60006001879003613f7557613f30888861394a565b15613f5c57858514613f55576040516349986e7360e01b815260040160405180910390fd5b50826121e6565b60405163bec74c8560e01b815260040160405180910390fd5b6000366000613f848b8b613821565b925092509250600080846001600160a01b031684848c8b8b604051602001613fb09594939291906150d5565b60408051601f1981840301815290829052613fca916150f4565b600060405180830381855afa9150503d8060008114614005576040519150601f19603f3d011682016040523d82523d6000602084013e61400a565b606091505b509150915081158061401e57508051602014155b1561403c5760405163110b8e7360e01b815260040160405180910390fd5b808060200190518101906140509190614fa1565b955050505050506121e6565b60006040518481528360048201528260248201526020600060448360008a5af19150508015611235573d80156139e857600160005114601f3d111691506139f0565b60006001600160ff1b038211156141085760405162461bcd60e51b815260206004820152602860248201527f53616665436173743a2076616c756520646f65736e27742066697420696e2061604482015267371034b73a191a9b60c11b6064820152608401611682565b5090565b6000808212156141085760405162461bcd60e51b815260206004820181905260248201527f53616665436173743a2076616c7565206d75737420626520706f7369746976656044820152606401611682565b6001600160a01b03811681146113f057600080fd5b803561417e8161415e565b919050565b60008083601f84011261419557600080fd5b5081356001600160401b038111156141ac57600080fd5b6020830191508360208260051b8501011115612f5457600080fd5b6000806000806000608086880312156141df57600080fd5b85356141ea8161415e565b9450602086013593506040860135925060608601356001600160401b0381111561421357600080fd5b61421f88828901614183565b969995985093965092949392505050565b60008060008060008060008060006101208a8c03121561424f57600080fd5b893561425a8161415e565b985060208a013561426a8161415e565b975060408a013561427a8161415e565b965060608a013561428a8161415e565b989b979a50959860808101359760a0820135975060c0820135965060e08201359550610100909101359350915050565b60008083601f8401126142cc57600080fd5b5081356001600160401b038111156142e357600080fd5b602083019150836020828501011115612f5457600080fd5b60008060008060008086880361014081121561431657600080fd5b87356143218161415e565b965060e0601f198201121561433557600080fd5b506020870194506101008701356001600160401b038082111561435757600080fd5b6143638a838b016142ba565b909650945061012089013591508082111561437d57600080fd5b5061438a89828a016142ba565b979a9699509497509295939492505050565b60008060008060008060008060c0898b0312156143b857600080fd5b88356143c38161415e565b975060208901356143d38161415e565b9650604089013595506060890135945060808901356001600160401b03808211156143fd57600080fd5b6144098c838d01614183565b909650945060a08b013591508082111561442257600080fd5b5061442f8b828c016142ba565b999c989b5096995094979396929594505050565b60006020828403121561445557600080fd5b5035919050565b6000610140828403121561446f57600080fd5b50919050565b60006020828403121561448757600080fd5b81356001600160401b0381111561449d57600080fd5b6112358482850161445c565b634e487b7160e01b600052604160045260246000fd5b604051601f8201601f191681016001600160401b03811182821017156144e7576144e76144a9565b604052919050565b600060e0828403121561450157600080fd5b60405160e081018181106001600160401b0382111715614523576145236144a9565b60405282358152905080602083013561453b8161415e565b6020820152604083013561454e8161415e565b604082015260608301356145618161415e565b606082015260808301356145748161415e565b8060808301525060a083013560a082015260c083013560c08201525092915050565b60008060008061012085870312156145ad57600080fd5b6145b786866144ef565b935060e08501356001600160401b038111156145d257600080fd5b6145de878288016142ba565b959890975094956101000135949350505050565b60008060006040848603121561460757600080fd5b8335925060208401356001600160401b0381111561462457600080fd5b614630868287016142ba565b9497909650939450505050565b6000806040838503121561465057600080fd5b823561465b8161415e565b946020939093013593505050565b6000806000806000610140868803121561468257600080fd5b61468c87876144ef565b945060e08601356001600160401b038111156146a757600080fd5b6146b3888289016142ba565b90955093505061010086013591506101208601356146d08161415e565b809150509295509295909350565b60008060008060008060008060c0898b0312156146fa57600080fd5b88356001600160401b038082111561471157600080fd5b61471d8c838d0161445c565b995060208b013591508082111561473357600080fd5b61473f8c838d016142ba565b909950975060408b013591508082111561475857600080fd5b506147658b828c016142ba565b999c989b5096999698976060880135976080810135975060a0013595509350505050565b60006020828403121561479b57600080fd5b81356110d08161415e565b6000806000806000806000610160888a0312156147c257600080fd5b6147cc89896144ef565b965060e08801356001600160401b03808211156147e857600080fd5b6147f48b838c016142ba565b90985096506101008a013595506101208a013591506148128261415e565b909350610140890135908082111561482957600080fd5b506148368a828b016142ba565b989b979a50959850939692959293505050565b60006020828403121561485b57600080fd5b813560ff811681146110d057600080fd5b600080600080600080600080610100898b03121561488957600080fd5b88356148948161415e565b975060208901356148a48161415e565b965060408901356148b48161415e565b979a96995096976060810135975060808101359660a0820135965060c0820135955060e0909101359350915050565b600060208083850312156148f657600080fd5b82356001600160401b038082111561490d57600080fd5b818501915085601f83011261492157600080fd5b813581811115614933576149336144a9565b8060051b91506149448483016144bf565b818152918301840191848101908884111561495e57600080fd5b938501935b838510156138a557843582529385019390850190614963565b6020808252825182820181905260009190848201906040850190845b818110156149b457835183529284019291840191600101614998565b50909695505050505050565b60008060008061014085870312156149d757600080fd5b6149e186866144ef565b9660e08601359650610100860135956101200135945092505050565b600080600060408486031215614a1257600080fd5b8335614a1d8161415e565b925060208401356001600160401b0381111561462457600080fd5b60008060408385031215614a4b57600080fd5b50508035926020909101359150565b60008060008060008060008060008060006101408c8e031215614a7c57600080fd5b8b35614a878161415e565b9a5060208c0135614a978161415e565b995060408c0135614aa78161415e565b985060608c0135614ab78161415e565b975060808c0135965060a08c0135955060c08c0135945060e08c013593506101008c013592506101208c01356001600160401b03811115614af757600080fd5b614b038e828f016142ba565b915080935050809150509295989b509295989b9093969950565b60008060008060008060008060008060006101008c8e031215614b3f57600080fd5b6001600160401b03808d351115614b5557600080fd5b614b628e8e358f0161445c565b9b508060208e01351115614b7557600080fd5b614b858e60208f01358f016142ba565b909b50995060408d0135811015614b9b57600080fd5b614bab8e60408f01358f016142ba565b909950975060608d0135965060808d0135955060a08d01359450614bd160c08e01614173565b93508060e08e01351115614be457600080fd5b50614bf58d60e08e01358e016142ba565b81935080925050509295989b509295989b9093969950565b60008060008060608587031215614c2357600080fd5b843593506020850135925060408501356001600160401b03811115614c4757600080fd5b614c5387828801614183565b95989497509550505050565b600080600080600080600080600060e08a8c031215614c7d57600080fd5b89356001600160401b0380821115614c9457600080fd5b614ca08d838e0161445c565b9a5060208c0135915080821115614cb657600080fd5b614cc28d838e016142ba565b909a50985060408c0135915080821115614cdb57600080fd5b50614ce88c828d016142ba565b90975095505060608a0135935060808a0135925060a08a0135915060c08a0135614d118161415e565b809150509295985092959850929598565b60008060008060008060a08789031215614d3b57600080fd5b8635614d468161415e565b95506020870135614d568161415e565b9450604087013593506060870135925060808701356001600160401b03811115614d7f57600080fd5b61438a89828a01614183565b60008060008060608587031215614da157600080fd5b843593506020850135925060408501356001600160401b03811115614dc557600080fd5b614c53878288016142ba565b634e487b7160e01b600052601160045260246000fd5b8181038181111561106057611060614dd1565b808202811582820484141761106057611060614dd1565b8082018082111561106057611060614dd1565b60008085851115614e3457600080fd5b83861115614e4157600080fd5b5050820193919092039150565b634e487b7160e01b600052603260045260246000fd5b600060018201614e7657614e76614dd1565b5060010190565b8183823760009101908152919050565b60005b83811015614ea8578181015183820152602001614e90565b50506000910152565b60008151808452614ec9816020860160208601614e8d565b601f01601f19169290920160200192915050565b82151581526040602082015260006112356040830184614eb1565b81835281816020850137506000828201602090810191909152601f909101601f19169091010190565b888152600060018060a01b03808a1660208401528089166040840152508660608301528560808301528460a083015260e060c0830152614f6560e083018486614ef8565b9a9950505050505050505050565b60018060a01b03861681528460208201528360408201526080606082015260006121e6608083018486614ef8565b600060208284031215614fb357600080fd5b5051919050565b600060208284031215614fcc57600080fd5b815180151581146110d057600080fd5b6000808335601e19843603018112614ff357600080fd5b8301803591506001600160401b0382111561500d57600080fd5b602001915036819003821315612f5457600080fd5b6001600160a01b0386811682528515156020830152604082018590528316606082015260a0608082018190526000906121e690830184614eb1565b6000806040838503121561507057600080fd5b505080516020909101519092909150565b6000600160ff1b820161509657615096614dd1565b5060000390565b6000826150ba57634e487b7160e01b600052601260045260246000fd5b500490565b634e487b7160e01b600052602160045260246000fd5b8486823790930191825260208201526040810191909152606001919050565b60008251615106818460208701614e8d565b919091019291505056fea2646970667358221220df8c38d20c14caa514b276607064cc878f5ff4b8400be9998cadb89711b77dbe64736f6c63430008110033","linkReferences":{}},"methodIdentifiers":{"advanceNonce(uint8)":"72c244a8","and(uint256,bytes)":"bfa75143","arbitraryStaticCall(address,bytes)":"bf15fcd8","cancelOrder((uint256,address,address,address,address,address,uint256,uint256,uint256,bytes))":"2d9a56f6","cancelOrderRFQ(uint256)":"825caba1","cancelOrderRFQ(uint256,uint256)":"bddccd35","checkPredicate((uint256,address,address,address,address,address,uint256,uint256,uint256,bytes))":"6c838250","clipperSwap(address,address,address,uint256,uint256,uint256,bytes32,bytes32)":"84bd6d29","clipperSwapTo(address,address,address,address,uint256,uint256,uint256,bytes32,bytes32)":"093d4fa5","clipperSwapToWithPermit(address,address,address,address,uint256,uint256,uint256,bytes32,bytes32,bytes)":"c805a666","destroy()":"83197ef0","eq(uint256,bytes)":"6fe7b0ba","fillOrder((uint256,address,address,address,address,address,uint256,uint256,uint256,bytes),bytes,bytes,uint256,uint256,uint256)":"62e238bb","fillOrderRFQ((uint256,address,address,address,address,uint256,uint256),bytes,uint256)":"3eca9c0a","fillOrderRFQCompact((uint256,address,address,address,address,uint256,uint256),bytes32,bytes32,uint256)":"9570eeee","fillOrderRFQTo((uint256,address,address,address,address,uint256,uint256),bytes,uint256,address)":"5a099843","fillOrderRFQToWithPermit((uint256,address,address,address,address,uint256,uint256),bytes,uint256,address,bytes)":"70ccbd31","fillOrderTo((uint256,address,address,address,address,address,uint256,uint256,uint256,bytes),bytes,bytes,uint256,uint256,uint256,address)":"e5d7bde6","fillOrderToWithPermit((uint256,address,address,address,address,address,uint256,uint256,uint256,bytes),bytes,bytes,uint256,uint256,uint256,address,bytes)":"d365c695","gt(uint256,bytes)":"4f38e2b8","hashOrder((uint256,address,address,address,address,address,uint256,uint256,uint256,bytes))":"37e7316f","increaseNonce()":"c53a0292","invalidatorForOrderRFQ(address,uint256)":"56f16124","lt(uint256,bytes)":"ca4ece22","nonce(address)":"70ae92d2","nonceEquals(address,uint256)":"cf6fc6e3","or(uint256,bytes)":"74261145","owner()":"8da5cb5b","remaining(bytes32)":"bc1ed74c","remainingRaw(bytes32)":"7e54f092","remainingsRaw(bytes32[])":"942461bb","renounceOwnership()":"715018a6","rescueFunds(address,uint256)":"78e3214f","simulate(address,bytes)":"bd61951d","swap(address,(address,address,address,address,uint256,uint256,uint256),bytes,bytes)":"12aa3caf","timestampBelow(uint256)":"63592c2b","timestampBelowAndNonceEquals(uint256)":"2cc2878d","transferOwnership(address)":"f2fde38b","uniswapV3Swap(uint256,uint256,uint256[])":"e449022e","uniswapV3SwapCallback(int256,int256,bytes)":"fa461e33","uniswapV3SwapTo(address,uint256,uint256,uint256[])":"bc80f1a8","uniswapV3SwapToWithPermit(address,address,uint256,uint256,uint256[],bytes)":"2521b930","unoswap(address,uint256,uint256,uint256[])":"0502b1c5","unoswapTo(address,address,uint256,uint256,uint256[])":"f78dc253","unoswapToWithPermit(address,address,uint256,uint256,uint256[],bytes)":"3c15fd91"},"id":0}