{"src/TetherToken.sol":{"Pausable":{"abi":[{"type":"function","name":"owner","inputs":[],"outputs":[{"name":"","type":"address"}],"stateMutability":"view"},{"type":"function","name":"pause","inputs":[],"outputs":[],"stateMutability":"nonpayable"},{"type":"function","name":"paused","inputs":[],"outputs":[{"name":"","type":"bool"}],"stateMutability":"view"},{"type":"function","name":"transferOwnership","inputs":[{"name":"newOwner","type":"address"}],"outputs":[],"stateMutability":"nonpayable"},{"type":"function","name":"unpause","inputs":[],"outputs":[],"stateMutability":"nonpayable"},{"type":"event","name":"Pause","inputs":[],"anonymous":false},{"type":"event","name":"Unpause","inputs":[],"anonymous":false}],"userdoc":{},"devdoc":{"methods":{"pause()":{"details":"called by the owner to pause, triggers stopped state"},"transferOwnership(address)":{"details":"Allows the current owner to transfer control of the contract to a newOwner.","params":{"newOwner":"The address to transfer ownership to."}},"unpause()":{"details":"called by the owner to unpause, returns to normal state"}},"title":"Pausable"},"evm":{"assembly":"    /* \"src/TetherToken.sol\":7247:7992  contract Pausable is Ownable {... */\n  mstore(0x40, 0x60)\n    /* \"src/TetherToken.sol\":7338:7343  false */\n  0x0\n    /* \"src/TetherToken.sol\":7317:7343  bool public paused = false */\n  dup1\n  sload\n  sub(exp(0x2, 0xa0), 0x1)\n    /* \"src/TetherToken.sol\":1319:1329  msg.sender */\n  caller\n    /* \"src/TetherToken.sol\":1311:1329  owner = msg.sender */\n  and\n  not(sub(exp(0x2, 0xa8), 0x1))\n  swap1\n  swap2\n  and\n  or\n  swap1\n  sstore\n    /* \"src/TetherToken.sol\":7247:7992  contract Pausable is Ownable {... */\n  dataSize(sub_0)\n  dup1\n  dataOffset(sub_0)\n  0x0\n  codecopy\n  0x0\n  return\nstop\n\nsub_0: assembly {\n        /* \"src/TetherToken.sol\":7247:7992  contract Pausable is Ownable {... */\n      mstore(0x40, 0x60)\n      and(div(calldataload(0x0), 0x100000000000000000000000000000000000000000000000000000000), 0xffffffff)\n      0x3f4ba83a\n      dup2\n      eq\n      tag_2\n      jumpi\n      dup1\n      0x5c975abb\n      eq\n      tag_3\n      jumpi\n      dup1\n      0x8456cb59\n      eq\n      tag_4\n      jumpi\n      dup1\n      0x8da5cb5b\n      eq\n      tag_5\n      jumpi\n      dup1\n      0xf2fde38b\n      eq\n      tag_6\n      jumpi\n      0x0\n      dup1\n      revert\n        /* \"src/TetherToken.sol\":7903:7990  function unpause() onlyOwner whenPaused public {... */\n    tag_2:\n      jumpi(tag_7, iszero(callvalue))\n      0x0\n      dup1\n      revert\n    tag_7:\n      tag_8\n      jump(tag_9)\n    tag_8:\n      stop\n        /* \"src/TetherToken.sol\":7317:7343  bool public paused = false */\n    tag_3:\n      jumpi(tag_10, iszero(callvalue))\n      0x0\n      dup1\n      revert\n    tag_10:\n      tag_11\n      jump(tag_12)\n    tag_11:\n      mload(0x40)\n      swap1\n      iszero\n      iszero\n      dup2\n      mstore\n      0x20\n      add\n      mload(0x40)\n      dup1\n      swap2\n      sub\n      swap1\n      return\n        /* \"src/TetherToken.sol\":7736:7821  function pause() onlyOwner whenNotPaused public {... */\n    tag_4:\n      jumpi(tag_13, iszero(callvalue))\n      0x0\n      dup1\n      revert\n    tag_13:\n      tag_8\n      jump(tag_15)\n        /* \"src/TetherToken.sol\":1121:1141  address public owner */\n    tag_5:\n      jumpi(tag_16, iszero(callvalue))\n      0x0\n      dup1\n      revert\n    tag_16:\n      tag_17\n      jump(tag_18)\n    tag_17:\n      mload(0x40)\n      sub(exp(0x2, 0xa0), 0x1)\n      swap1\n      swap2\n      and\n      dup2\n      mstore\n      0x20\n      add\n      mload(0x40)\n      dup1\n      swap2\n      sub\n      swap1\n      return\n        /* \"src/TetherToken.sol\":1671:1818  function transferOwnership(address newOwner) public onlyOwner {... */\n    tag_6:\n      jumpi(tag_19, iszero(callvalue))\n      0x0\n      dup1\n      revert\n    tag_19:\n      tag_8\n      and(calldataload(0x4), sub(exp(0x2, 0xa0), 0x1))\n      jump(tag_21)\n        /* \"src/TetherToken.sol\":7903:7990  function unpause() onlyOwner whenPaused public {... */\n    tag_9:\n        /* \"src/TetherToken.sol\":1479:1484  owner */\n      sload(0x0)\n        /* \"src/TetherToken.sol\":1465:1475  msg.sender */\n      caller\n      sub(exp(0x2, 0xa0), 0x1)\n        /* \"src/TetherToken.sol\":1465:1484  msg.sender == owner */\n      swap1\n      dup2\n      and\n        /* \"src/TetherToken.sol\":1479:1484  owner */\n      swap2\n      and\n        /* \"src/TetherToken.sol\":1465:1484  msg.sender == owner */\n      eq\n        /* \"src/TetherToken.sol\":1457:1485  require(msg.sender == owner) */\n      tag_23\n      jumpi\n      0x0\n      dup1\n      revert\n    tag_23:\n        /* \"src/TetherToken.sol\":7638:7644  paused */\n      sload(0x0)\n      exp(0x2, 0xa0)\n      swap1\n      div\n      0xff\n      and\n        /* \"src/TetherToken.sol\":7630:7645  require(paused) */\n      iszero\n      iszero\n      tag_25\n      jumpi\n      0x0\n      dup1\n      revert\n    tag_25:\n        /* \"src/TetherToken.sol\":7965:7970  false */\n      0x0\n        /* \"src/TetherToken.sol\":7956:7970  paused = false */\n      dup1\n      sload\n      not(0xff0000000000000000000000000000000000000000)\n      and\n      swap1\n      sstore\n        /* \"src/TetherToken.sol\":7976:7985  Unpause() */\n      0x7805862f689e2f13df9f062ff482ad3ad112aca9e0847911ed832e158c525b33\n      mload(0x40)\n      mload(0x40)\n      dup1\n      swap2\n      sub\n      swap1\n      log1\n        /* \"src/TetherToken.sol\":7903:7990  function unpause() onlyOwner whenPaused public {... */\n      jump\t// out\n        /* \"src/TetherToken.sol\":7317:7343  bool public paused = false */\n    tag_12:\n      sload(0x0)\n      exp(0x2, 0xa0)\n      swap1\n      div\n      0xff\n      and\n      dup2\n      jump\t// out\n        /* \"src/TetherToken.sol\":7736:7821  function pause() onlyOwner whenNotPaused public {... */\n    tag_15:\n        /* \"src/TetherToken.sol\":1479:1484  owner */\n      sload(0x0)\n        /* \"src/TetherToken.sol\":1465:1475  msg.sender */\n      caller\n      sub(exp(0x2, 0xa0), 0x1)\n        /* \"src/TetherToken.sol\":1465:1484  msg.sender == owner */\n      swap1\n      dup2\n      and\n        /* \"src/TetherToken.sol\":1479:1484  owner */\n      swap2\n      and\n        /* \"src/TetherToken.sol\":1465:1484  msg.sender == owner */\n      eq\n        /* \"src/TetherToken.sol\":1457:1485  require(msg.sender == owner) */\n      tag_28\n      jumpi\n      0x0\n      dup1\n      revert\n    tag_28:\n        /* \"src/TetherToken.sol\":7486:7492  paused */\n      sload(0x0)\n      exp(0x2, 0xa0)\n      swap1\n      div\n      0xff\n      and\n        /* \"src/TetherToken.sol\":7485:7492  !paused */\n      iszero\n        /* \"src/TetherToken.sol\":7477:7493  require(!paused) */\n      tag_30\n      jumpi\n      0x0\n      dup1\n      revert\n    tag_30:\n        /* \"src/TetherToken.sol\":7790:7796  paused */\n      0x0\n        /* \"src/TetherToken.sol\":7790:7803  paused = true */\n      dup1\n      sload\n      not(0xff0000000000000000000000000000000000000000)\n      and\n      exp(0x2, 0xa0)\n      or\n      swap1\n      sstore\n        /* \"src/TetherToken.sol\":7809:7816  Pause() */\n      0x6985a02210a168e66602d3235cb6db0e70f92b3ba4d376a33c0f3d9434bff625\n      mload(0x40)\n      mload(0x40)\n      dup1\n      swap2\n      sub\n      swap1\n      log1\n        /* \"src/TetherToken.sol\":7736:7821  function pause() onlyOwner whenNotPaused public {... */\n      jump\t// out\n        /* \"src/TetherToken.sol\":1121:1141  address public owner */\n    tag_18:\n      and(sub(exp(0x2, 0xa0), 0x1), sload(0x0))\n      dup2\n      jump\t// out\n        /* \"src/TetherToken.sol\":1671:1818  function transferOwnership(address newOwner) public onlyOwner {... */\n    tag_21:\n        /* \"src/TetherToken.sol\":1479:1484  owner */\n      sload(0x0)\n        /* \"src/TetherToken.sol\":1465:1475  msg.sender */\n      caller\n      sub(exp(0x2, 0xa0), 0x1)\n        /* \"src/TetherToken.sol\":1465:1484  msg.sender == owner */\n      swap1\n      dup2\n      and\n        /* \"src/TetherToken.sol\":1479:1484  owner */\n      swap2\n      and\n        /* \"src/TetherToken.sol\":1465:1484  msg.sender == owner */\n      eq\n        /* \"src/TetherToken.sol\":1457:1485  require(msg.sender == owner) */\n      tag_33\n      jumpi\n      0x0\n      dup1\n      revert\n    tag_33:\n      sub(exp(0x2, 0xa0), 0x1)\n        /* \"src/TetherToken.sol\":1747:1769  newOwner != address(0) */\n      dup2\n      and\n      iszero\n        /* \"src/TetherToken.sol\":1743:1812  if (newOwner != address(0)) {... */\n      tag_35\n      jumpi\n        /* \"src/TetherToken.sol\":1785:1790  owner */\n      0x0\n        /* \"src/TetherToken.sol\":1785:1801  owner = newOwner */\n      dup1\n      sload\n      not(0xffffffffffffffffffffffffffffffffffffffff)\n      and\n      sub(exp(0x2, 0xa0), 0x1)\n      dup4\n      and\n      or\n      swap1\n      sstore\n        /* \"src/TetherToken.sol\":1743:1812  if (newOwner != address(0)) {... */\n    tag_35:\n        /* \"src/TetherToken.sol\":1671:1818  function transferOwnership(address newOwner) public onlyOwner {... */\n      pop\n      jump\t// out\n\n    auxdata: 0xa165627a7a723058208a267a992f18d366b5217b325a2bf3f3d517e9b14eaecc56269aebaa0a66920d0029\n}\n","bytecode":{"object":"606060405260008054600160a060020a033316600160a860020a03199091161790556102a9806100306000396000f300606060405263ffffffff7c01000000000000000000000000000000000000000000000000000000006000350416633f4ba83a81146100685780635c975abb1461007d5780638456cb59146100a45780638da5cb5b146100b7578063f2fde38b146100e657600080fd5b341561007357600080fd5b61007b610105565b005b341561008857600080fd5b610090610184565b604051901515815260200160405180910390f35b34156100af57600080fd5b61007b610194565b34156100c257600080fd5b6100ca610218565b604051600160a060020a03909116815260200160405180910390f35b34156100f157600080fd5b61007b600160a060020a0360043516610227565b60005433600160a060020a0390811691161461012057600080fd5b60005460a060020a900460ff16151561013857600080fd5b6000805474ff0000000000000000000000000000000000000000191690557f7805862f689e2f13df9f062ff482ad3ad112aca9e0847911ed832e158c525b3360405160405180910390a1565b60005460a060020a900460ff1681565b60005433600160a060020a039081169116146101af57600080fd5b60005460a060020a900460ff16156101c657600080fd5b6000805474ff0000000000000000000000000000000000000000191660a060020a1790557f6985a02210a168e66602d3235cb6db0e70f92b3ba4d376a33c0f3d9434bff62560405160405180910390a1565b600054600160a060020a031681565b60005433600160a060020a0390811691161461024257600080fd5b600160a060020a0381161561027a576000805473ffffffffffffffffffffffffffffffffffffffff1916600160a060020a0383161790555b505600a165627a7a723058208a267a992f18d366b5217b325a2bf3f3d517e9b14eaecc56269aebaa0a66920d0029","opcodes":"PUSH1 0x60 PUSH1 0x40 MSTORE PUSH1 0x0 DUP1 SLOAD PUSH1 0x1 PUSH1 0xA0 PUSH1 0x2 EXP SUB CALLER AND PUSH1 0x1 PUSH1 0xA8 PUSH1 0x2 EXP SUB NOT SWAP1 SWAP2 AND OR SWAP1 SSTORE PUSH2 0x2A9 DUP1 PUSH2 0x30 PUSH1 0x0 CODECOPY PUSH1 0x0 RETURN STOP PUSH1 0x60 PUSH1 0x40 MSTORE PUSH4 0xFFFFFFFF PUSH29 0x100000000000000000000000000000000000000000000000000000000 PUSH1 0x0 CALLDATALOAD DIV AND PUSH4 0x3F4BA83A DUP2 EQ PUSH2 0x68 JUMPI DUP1 PUSH4 0x5C975ABB EQ PUSH2 0x7D JUMPI DUP1 PUSH4 0x8456CB59 EQ PUSH2 0xA4 JUMPI DUP1 PUSH4 0x8DA5CB5B EQ PUSH2 0xB7 JUMPI DUP1 PUSH4 0xF2FDE38B EQ PUSH2 0xE6 JUMPI PUSH1 0x0 DUP1 REVERT JUMPDEST CALLVALUE ISZERO PUSH2 0x73 JUMPI PUSH1 0x0 DUP1 REVERT JUMPDEST PUSH2 0x7B PUSH2 0x105 JUMP JUMPDEST STOP JUMPDEST CALLVALUE ISZERO PUSH2 0x88 JUMPI PUSH1 0x0 DUP1 REVERT JUMPDEST PUSH2 0x90 PUSH2 0x184 JUMP JUMPDEST PUSH1 0x40 MLOAD SWAP1 ISZERO ISZERO DUP2 MSTORE PUSH1 0x20 ADD PUSH1 0x40 MLOAD DUP1 SWAP2 SUB SWAP1 RETURN JUMPDEST CALLVALUE ISZERO PUSH2 0xAF JUMPI PUSH1 0x0 DUP1 REVERT JUMPDEST PUSH2 0x7B PUSH2 0x194 JUMP JUMPDEST CALLVALUE ISZERO PUSH2 0xC2 JUMPI PUSH1 0x0 DUP1 REVERT JUMPDEST PUSH2 0xCA PUSH2 0x218 JUMP JUMPDEST PUSH1 0x40 MLOAD PUSH1 0x1 PUSH1 0xA0 PUSH1 0x2 EXP SUB SWAP1 SWAP2 AND DUP2 MSTORE PUSH1 0x20 ADD PUSH1 0x40 MLOAD DUP1 SWAP2 SUB SWAP1 RETURN JUMPDEST CALLVALUE ISZERO PUSH2 0xF1 JUMPI PUSH1 0x0 DUP1 REVERT JUMPDEST PUSH2 0x7B PUSH1 0x1 PUSH1 0xA0 PUSH1 0x2 EXP SUB PUSH1 0x4 CALLDATALOAD AND PUSH2 0x227 JUMP JUMPDEST PUSH1 0x0 SLOAD CALLER PUSH1 0x1 PUSH1 0xA0 PUSH1 0x2 EXP SUB SWAP1 DUP2 AND SWAP2 AND EQ PUSH2 0x120 JUMPI PUSH1 0x0 DUP1 REVERT JUMPDEST PUSH1 0x0 SLOAD PUSH1 0xA0 PUSH1 0x2 EXP SWAP1 DIV PUSH1 0xFF AND ISZERO ISZERO PUSH2 0x138 JUMPI PUSH1 0x0 DUP1 REVERT JUMPDEST PUSH1 0x0 DUP1 SLOAD PUSH21 0xFF0000000000000000000000000000000000000000 NOT AND SWAP1 SSTORE PUSH32 0x7805862F689E2F13DF9F062FF482AD3AD112ACA9E0847911ED832E158C525B33 PUSH1 0x40 MLOAD PUSH1 0x40 MLOAD DUP1 SWAP2 SUB SWAP1 LOG1 JUMP JUMPDEST PUSH1 0x0 SLOAD PUSH1 0xA0 PUSH1 0x2 EXP SWAP1 DIV PUSH1 0xFF AND DUP2 JUMP JUMPDEST PUSH1 0x0 SLOAD CALLER PUSH1 0x1 PUSH1 0xA0 PUSH1 0x2 EXP SUB SWAP1 DUP2 AND SWAP2 AND EQ PUSH2 0x1AF JUMPI PUSH1 0x0 DUP1 REVERT JUMPDEST PUSH1 0x0 SLOAD PUSH1 0xA0 PUSH1 0x2 EXP SWAP1 DIV PUSH1 0xFF AND ISZERO PUSH2 0x1C6 JUMPI PUSH1 0x0 DUP1 REVERT JUMPDEST PUSH1 0x0 DUP1 SLOAD PUSH21 0xFF0000000000000000000000000000000000000000 NOT AND PUSH1 0xA0 PUSH1 0x2 EXP OR SWAP1 SSTORE PUSH32 0x6985A02210A168E66602D3235CB6DB0E70F92B3BA4D376A33C0F3D9434BFF625 PUSH1 0x40 MLOAD PUSH1 0x40 MLOAD DUP1 SWAP2 SUB SWAP1 LOG1 JUMP JUMPDEST PUSH1 0x0 SLOAD PUSH1 0x1 PUSH1 0xA0 PUSH1 0x2 EXP SUB AND DUP2 JUMP JUMPDEST PUSH1 0x0 SLOAD CALLER PUSH1 0x1 PUSH1 0xA0 PUSH1 0x2 EXP SUB SWAP1 DUP2 AND SWAP2 AND EQ PUSH2 0x242 JUMPI PUSH1 0x0 DUP1 REVERT JUMPDEST PUSH1 0x1 PUSH1 0xA0 PUSH1 0x2 EXP SUB DUP2 AND ISZERO PUSH2 0x27A JUMPI PUSH1 0x0 DUP1 SLOAD PUSH20 0xFFFFFFFFFFFFFFFFFFFFFFFFFFFFFFFFFFFFFFFF NOT AND PUSH1 0x1 PUSH1 0xA0 PUSH1 0x2 EXP SUB DUP4 AND OR SWAP1 SSTORE JUMPDEST POP JUMP STOP LOG1 PUSH6 0x627A7A723058 KECCAK256 DUP11 0x26 PUSH27 0x992F18D366B5217B325A2BF3F3D517E9B14EAECC56269AEBAA0A66 SWAP3 0xd STOP 0x29 ","linkReferences":{}},"methodIdentifiers":{"owner()":"8da5cb5b","pause()":"8456cb59","paused()":"5c975abb","transferOwnership(address)":"f2fde38b","unpause()":"3f4ba83a"},"gasEstimates":{"creation":{"codeDepositCost":"136200","executionCost":"20532","totalCost":"156732"},"external":{"owner()":"571","pause()":"21821","paused()":"460","transferOwnership(address)":"20978","unpause()":"21711"},"internal":{}}}}}}