{"abi":[{"type":"constructor","inputs":[],"stateMutability":"nonpayable"},{"type":"function","name":"balances","inputs":[{"name":"","type":"address","internalType":"address"}],"outputs":[{"name":"","type":"uint256","internalType":"uint256"}],"stateMutability":"view"},{"type":"function","name":"deposit","inputs":[{"name":"amount","type":"uint256","internalType":"uint256"}],"outputs":[],"stateMutability":"nonpayable"},{"type":"function","name":"maxDeposit","inputs":[],"outputs":[{"name":"","type":"uint256","internalType":"uint256"}],"stateMutability":"view"},{"type":"function","name":"minDeposit","inputs":[],"outputs":[{"name":"","type":"uint256","internalType":"uint256"}],"stateMutability":"view"},{"type":"function","name":"owner","inputs":[],"outputs":[{"name":"","type":"address","internalType":"address"}],"stateMutability":"view"},{"type":"function","name":"setMaxDeposit","inputs":[{"name":"_max","type":"uint256","internalType":"uint256"}],"outputs":[],"stateMutability":"nonpayable"},{"type":"function","name":"setMinDeposit","inputs":[{"name":"_min","type":"uint256","internalType":"uint256"}],"outputs":[],"stateMutability":"nonpayable"},{"type":"function","name":"withdraw","inputs":[{"name":"amount","type":"uint256","internalType":"uint256"}],"outputs":[],"stateMutability":"nonpayable"}],"bytecode":{"object":"0x6080604052348015600e575f5ffd5b503360025f6101000a81548173ffffffffffffffffffffffffffffffffffffffff021916908373ffffffffffffffffffffffffffffffffffffffff16021790555060645f819055506113886001819055506109098061006c5f395ff3fe608060405234801561000f575f5ffd5b5060043610610086575f3560e01c80638da5cb5b116100595780638da5cb5b146101125780638fcc9cfb14610130578063b6b55f251461014c578063bb371fdd1461016857610086565b806327e235e31461008a5780632e1a7d4d146100ba57806341b3d185146100d65780636083e59a146100f4575b5f5ffd5b6100a4600480360381019061009f919061054f565b610184565b6040516100b19190610592565b60405180910390f35b6100d460048036038101906100cf91906105d5565b610199565b005b6100de6102b1565b6040516100eb9190610592565b60405180910390f35b6100fc6102b6565b6040516101099190610592565b60405180910390f35b61011a6102bc565b604051610127919061060f565b60405180910390f35b61014a600480360381019061014591906105d5565b6102e1565b005b610166600480360381019061016191906105d5565b610379565b005b610182600480360381019061017d91906105d5565b610458565b005b6003602052805f5260405f205f915090505481565b5f81116101db576040517f08c379a00000000000000000000000000000000000000000000000000000000081526004016101d290610682565b60405180910390fd5b60035f3373ffffffffffffffffffffffffffffffffffffffff1673ffffffffffffffffffffffffffffffffffffffff1681526020019081526020015f205481111561025b576040517f08c379a0000000000000000000000000000000000000000000000000000000008152600401610252906106ea565b60405180910390fd5b8060035f3373ffffffffffffffffffffffffffffffffffffffff1673ffffffffffffffffffffffffffffffffffffffff1681526020019081526020015f205f8282546102a79190610735565b9250508190555050565b5f5481565b60015481565b60025f9054906101000a900473ffffffffffffffffffffffffffffffffffffffff1681565b60025f9054906101000a900473ffffffffffffffffffffffffffffffffffffffff1673ffffffffffffffffffffffffffffffffffffffff163373ffffffffffffffffffffffffffffffffffffffff1614610370576040517f08c379a0000000000000000000000000000000000000000000000000000000008152600401610367906107b2565b60405180910390fd5b805f8190555050565b5f548110156103bd576040517f08c379a00000000000000000000000000000000000000000000000000000000081526004016103b49061081a565b60405180910390fd5b600154811115610402576040517f08c379a00000000000000000000000000000000000000000000000000000000081526004016103f990610882565b60405180910390fd5b8060035f3373ffffffffffffffffffffffffffffffffffffffff1673ffffffffffffffffffffffffffffffffffffffff1681526020019081526020015f205f82825461044e91906108a0565b9250508190555050565b60025f9054906101000a900473ffffffffffffffffffffffffffffffffffffffff1673ffffffffffffffffffffffffffffffffffffffff163373ffffffffffffffffffffffffffffffffffffffff16146104e7576040517f08c379a00000000000000000000000000000000000000000000000000000000081526004016104de906107b2565b60405180910390fd5b8060018190555050565b5f5ffd5b5f73ffffffffffffffffffffffffffffffffffffffff82169050919050565b5f61051e826104f5565b9050919050565b61052e81610514565b8114610538575f5ffd5b50565b5f8135905061054981610525565b92915050565b5f60208284031215610564576105636104f1565b5b5f6105718482850161053b565b91505092915050565b5f819050919050565b61058c8161057a565b82525050565b5f6020820190506105a55f830184610583565b92915050565b6105b48161057a565b81146105be575f5ffd5b50565b5f813590506105cf816105ab565b92915050565b5f602082840312156105ea576105e96104f1565b5b5f6105f7848285016105c1565b91505092915050565b61060981610514565b82525050565b5f6020820190506106225f830184610600565b92915050565b5f82825260208201905092915050565b7f7a65726f000000000000000000000000000000000000000000000000000000005f82015250565b5f61066c600483610628565b915061067782610638565b602082019050919050565b5f6020820190508181035f83015261069981610660565b9050919050565b7f696e73756666696369656e7400000000000000000000000000000000000000005f82015250565b5f6106d4600c83610628565b91506106df826106a0565b602082019050919050565b5f6020820190508181035f830152610701816106c8565b9050919050565b7f4e487b71000000000000000000000000000000000000000000000000000000005f52601160045260245ffd5b5f61073f8261057a565b915061074a8361057a565b925082820390508181111561076257610761610708565b5b92915050565b7f6e6f74206f776e657200000000000000000000000000000000000000000000005f82015250565b5f61079c600983610628565b91506107a782610768565b602082019050919050565b5f6020820190508181035f8301526107c981610790565b9050919050565b7f62656c6f77206d696e00000000000000000000000000000000000000000000005f82015250565b5f610804600983610628565b915061080f826107d0565b602082019050919050565b5f6020820190508181035f830152610831816107f8565b9050919050565b7f61626f7665206d617800000000000000000000000000000000000000000000005f82015250565b5f61086c600983610628565b915061087782610838565b602082019050919050565b5f6020820190508181035f83015261089981610860565b9050919050565b5f6108aa8261057a565b91506108b58361057a565b92508282019050808211156108cd576108cc610708565b5b9291505056fea2646970667358221220a3cb4faa414c2e60fc253523efed7984d3b89cab405af2595d320de04f22c90864736f6c634300081e0033","linkReferences":{}},"methodIdentifiers":{"balances(address)":"27e235e3","deposit(uint256)":"b6b55f25","maxDeposit()":"6083e59a","minDeposit()":"41b3d185","owner()":"8da5cb5b","setMaxDeposit(uint256)":"bb371fdd","setMinDeposit(uint256)":"8fcc9cfb","withdraw(uint256)":"2e1a7d4d"},"id":0}